20230601-19:54:49.012441000 : 8=FIX.4.2|9=84|35=A|34=1|49=OPS_CANDIDATE_7_7595|52=20230601-19:54:49.012|56=DTL|98=0|108=30|141=Y|10=175|
20230601-19:54:49.078934000 : 8=FIX.4.2|9=84|35=A|34=1|49=DTL|52=20230601-19:54:49.053|56=OPS_CANDIDATE_7_7595|98=0|108=30|141=Y|10=180|
20230601-19:54:49.696691000 : 8=FIX.4.2|9=138|35=D|34=2|49=OPS_CANDIDATE_7_7595|52=20230601-19:54:49.696|56=DTL|60=20230601-19:54:49.696|11=1685649288621|21=1|38=758|40=1|54=2|55=MSFT|10=148|
20230601-19:54:49.763934000 : 8=FIX.4.2|9=134|35=8|34=2|49=DTL|52=20230601-19:54:49.738|56=OPS_CANDIDATE_7_7595|11=1685649288621|37=102164|38=758|39=0|40=1|44=0|54=2|55=MSFT|150=0|10=083|
20230601-19:54:49.949835000 : 8=FIX.4.2|9=152|35=8|34=3|49=DTL|52=20230601-19:54:49.924|56=OPS_CANDIDATE_7_7595|11=1685649288621|17=144883|30=NSDQ|31=240.66|32=758|37=102164|39=2|54=2|55=MSFT|150=2|10=049|
20230601-19:54:50.009441000 : 8=FIX.4.2|9=146|35=D|34=3|49=OPS_CANDIDATE_7_7595|52=20230601-19:54:50.009|56=DTL|60=20230601-19:54:50.009|11=1685649288622|21=1|38=170|40=2|44=35.48|54=2|55=BAC|10=150|
20230601-19:54:50.076908000 : 8=FIX.4.2|9=137|35=8|34=4|49=DTL|52=20230601-19:54:50.051|56=OPS_CANDIDATE_7_7595|11=1685649288622|37=102165|38=170|39=0|40=2|44=35.48|54=2|55=BAC|150=0|10=153|
20230601-19:54:50.279164000 : 8=FIX.4.2|9=137|35=D|34=4|49=OPS_CANDIDATE_7_7595|52=20230601-19:54:50.279|56=DTL|60=20230601-19:54:50.278|11=1685649288623|21=1|38=950|40=1|54=2|55=BAC|10=006|
20230601-19:54:50.345211000 : 8=FIX.4.2|9=133|35=8|34=5|49=DTL|52=20230601-19:54:50.320|56=OPS_CANDIDATE_7_7595|11=1685649288623|37=102166|38=950|39=0|40=1|44=0|54=2|55=BAC|150=0|10=202|
20230601-19:54:50.396809000 : 8=FIX.4.2|9=148|35=D|34=5|49=OPS_CANDIDATE_7_7595|52=20230601-19:54:50.396|56=DTL|60=20230601-19:54:50.396|11=1685649288624|21=1|38=891|40=2|44=138.34|54=2|55=AAPL|10=063|
20230601-19:54:50.464061000 : 8=FIX.4.2|9=139|35=8|34=6|49=DTL|52=20230601-19:54:50.438|56=OPS_CANDIDATE_7_7595|11=1685649288624|37=102167|38=891|39=0|40=2|44=138.34|54=2|55=AAPL|150=0|10=059|
20230601-19:54:50.591567000 : 8=FIX.4.2|9=146|35=D|34=6|49=OPS_CANDIDATE_7_7595|52=20230601-19:54:50.591|56=DTL|60=20230601-19:54:50.591|11=1685649288625|21=1|38=886|40=2|44=30.91|54=5|55=BAC|10=178|
20230601-19:54:50.657877000 : 8=FIX.4.2|9=137|35=8|34=7|49=DTL|52=20230601-19:54:50.632|56=OPS_CANDIDATE_7_7595|11=1685649288625|37=102168|38=886|39=0|40=2|44=30.91|54=5|55=BAC|150=0|10=177|
20230601-19:54:50.700180000 : 8=FIX.4.2|9=137|35=D|34=7|49=OPS_CANDIDATE_7_7595|52=20230601-19:54:50.700|56=DTL|60=20230601-19:54:50.699|11=1685649288626|21=1|38=983|40=1|54=1|55=BAC|10=013|
20230601-19:54:50.766594000 : 8=FIX.4.2|9=133|35=8|34=8|49=DTL|52=20230601-19:54:50.741|56=OPS_CANDIDATE_7_7595|11=1685649288626|37=102169|38=983|39=0|40=1|44=0|54=1|55=BAC|150=0|10=223|
20230601-19:54:50.998000000 : 8=FIX.4.2|9=146|35=D|34=8|49=OPS_CANDIDATE_7_7595|52=20230601-19:54:50.997|56=DTL|60=20230601-19:54:50.997|11=1685649288627|21=1|38=349|40=2|44=33.78|54=5|55=BAC|10=204|
20230601-19:54:51.044057000 : 8=FIX.4.2|9=150|35=8|34=9|49=DTL|52=20230601-19:54:51.018|56=OPS_CANDIDATE_7_7595|11=1685649288622|17=144884|30=NSDQ|31=31.21|32=170|37=102165|39=2|54=2|55=BAC|150=2|10=112|
20230601-19:54:51.109522000 : 8=FIX.4.2|9=151|35=8|34=10|49=DTL|52=20230601-19:54:51.018|56=OPS_CANDIDATE_7_7595|11=1685649288623|17=144885|30=NSDQ|31=31.62|32=950|37=102166|39=2|54=2|55=BAC|150=2|10=167|
20230601-19:54:51.109702000 : 8=FIX.4.2|9=152|35=8|34=11|49=DTL|52=20230601-19:54:51.018|56=OPS_CANDIDATE_7_7595|11=1685649288624|17=144886|30=NSDQ|31=150.9|32=891|37=102167|39=2|54=2|55=AAPL|150=2|10=011|
20230601-19:54:51.109748000 : 8=FIX.4.2|9=151|35=8|34=12|49=DTL|52=20230601-19:54:51.019|56=OPS_CANDIDATE_7_7595|11=1685649288625|17=144887|30=NSDQ|31=33.92|32=848|37=102168|39=1|54=5|55=BAC|150=1|10=188|
20230601-19:54:51.109790000 : 8=FIX.4.2|9=151|35=8|34=13|49=DTL|52=20230601-19:54:51.019|56=OPS_CANDIDATE_7_7595|11=1685649288626|17=144888|30=NSDQ|31=31.78|32=593|37=102169|39=1|54=1|55=BAC|150=1|10=187|
20230601-19:54:51.109830000 : 8=FIX.4.2|9=138|35=8|34=14|49=DTL|52=20230601-19:54:51.039|56=OPS_CANDIDATE_7_7595|11=1685649288627|37=102170|38=349|39=0|40=2|44=33.78|54=5|55=BAC|150=0|10=223|
20230601-19:54:51.136640000 : 8=FIX.4.2|9=138|35=D|34=9|49=OPS_CANDIDATE_7_7595|52=20230601-19:54:51.136|56=DTL|60=20230601-19:54:51.136|11=1685649288628|21=1|38=694|40=1|54=1|55=MSFT|10=124|
20230601-19:54:51.202408000 : 8=FIX.4.2|9=135|35=8|34=15|49=DTL|52=20230601-19:54:51.177|56=OPS_CANDIDATE_7_7595|11=1685649288628|37=102171|38=694|39=0|40=1|44=0|54=1|55=MSFT|150=0|10=129|
20230601-19:54:51.467471000 : 8=FIX.4.2|9=138|35=D|34=10|49=OPS_CANDIDATE_7_7595|52=20230601-19:54:51.467|56=DTL|60=20230601-19:54:51.467|11=1685649288630|21=1|38=839|40=1|54=2|55=BAC|10=057|
20230601-19:54:51.533394000 : 8=FIX.4.2|9=134|35=8|34=16|49=DTL|52=20230601-19:54:51.508|56=OPS_CANDIDATE_7_7595|11=1685649288630|37=102172|38=839|39=0|40=1|44=0|54=2|55=BAC|150=0|10=007|
20230601-19:54:51.824335000 : 8=FIX.4.2|9=147|35=D|34=11|49=OPS_CANDIDATE_7_7595|52=20230601-19:54:51.824|56=DTL|60=20230601-19:54:51.824|11=1685649288631|21=1|38=694|40=2|44=37.72|54=2|55=BAC|10=220|
20230601-19:54:51.890747000 : 8=FIX.4.2|9=138|35=8|34=17|49=DTL|52=20230601-19:54:51.865|56=OPS_CANDIDATE_7_7595|11=1685649288631|37=102173|38=694|39=0|40=2|44=37.72|54=2|55=BAC|150=0|10=229|
20230601-19:54:52.031051000 : 8=FIX.4.2|9=139|35=D|34=12|49=OPS_CANDIDATE_7_7595|52=20230601-19:54:52.030|56=DTL|60=20230601-19:54:52.030|11=1685649288632|21=1|38=694|40=1|54=2|55=MSFT|10=151|
20230601-19:54:52.146550000 : 8=FIX.4.2|9=150|35=8|34=18|49=DTL|52=20230601-19:54:52.120|56=OPS_CANDIDATE_7_7595|11=1685649288625|17=144889|30=NSDQ|31=30.76|32=38|37=102168|39=2|54=5|55=BAC|150=2|10=133|
20230601-19:54:52.169716000 : 8=FIX.4.2|9=148|35=D|34=13|49=OPS_CANDIDATE_7_7595|52=20230601-19:54:52.169|56=DTL|60=20230601-19:54:52.169|11=1685649288633|21=1|38=426|40=2|44=252.6|54=5|55=MSFT|10=083|
20230601-19:54:52.213241000 : 8=FIX.4.2|9=150|35=8|34=19|49=DTL|52=20230601-19:54:52.121|56=OPS_CANDIDATE_7_7595|11=1685649288626|17=144890|30=NSDQ|31=30.84|32=31|37=102169|39=1|54=1|55=BAC|150=1|10=115|
20230601-19:54:52.213430000 : 8=FIX.4.2|9=151|35=8|34=20|49=DTL|52=20230601-19:54:52.121|56=OPS_CANDIDATE_7_7595|11=1685649288627|17=144891|30=NSDQ|31=32.12|32=234|37=102170|39=1|54=5|55=BAC|150=1|10=152|
20230601-19:54:52.213480000 : 8=FIX.4.2|9=153|35=8|34=21|49=DTL|52=20230601-19:54:52.121|56=OPS_CANDIDATE_7_7595|11=1685649288628|17=144892|30=NSDQ|31=241.64|32=694|37=102171|39=2|54=1|55=MSFT|150=2|10=083|
20230601-19:54:52.213520000 : 8=FIX.4.2|9=150|35=8|34=22|49=DTL|52=20230601-19:54:52.121|56=OPS_CANDIDATE_7_7595|11=1685649288630|17=144893|30=NSDQ|31=32.4|32=189|37=102172|39=1|54=2|55=BAC|150=1|10=110|
20230601-19:54:52.213568000 : 8=FIX.4.2|9=151|35=8|34=23|49=DTL|52=20230601-19:54:52.121|56=OPS_CANDIDATE_7_7595|11=1685649288631|17=144894|30=NSDQ|31=31.42|32=694|37=102173|39=2|54=2|55=BAC|150=2|10=167|
20230601-19:54:52.213614000 : 8=FIX.4.2|9=135|35=8|34=24|49=DTL|52=20230601-19:54:52.121|56=OPS_CANDIDATE_7_7595|11=1685649288632|37=102174|38=694|39=0|40=1|44=0|54=2|55=MSFT|150=0|10=118|
20230601-19:54:52.324527000 : 8=FIX.4.2|9=139|35=8|34=25|49=DTL|52=20230601-19:54:52.210|56=OPS_CANDIDATE_7_7595|11=1685649288633|37=102175|38=426|39=0|40=2|44=252.6|54=5|55=MSFT|150=0|10=070|
20230601-19:54:52.461508000 : 8=FIX.4.2|9=138|35=D|34=14|49=OPS_CANDIDATE_7_7595|52=20230601-19:54:52.461|56=DTL|60=20230601-19:54:52.461|11=1685649288634|21=1|38=66|40=1|54=5|55=MSFT|10=118|
20230601-19:54:52.528698000 : 8=FIX.4.2|9=134|35=8|34=26|49=DTL|52=20230601-19:54:52.502|56=OPS_CANDIDATE_7_7595|11=1685649288634|37=102176|38=66|39=0|40=1|44=0|54=5|55=MSFT|150=0|10=074|
20230601-19:54:52.582036000 : 8=FIX.4.2|9=147|35=D|34=15|49=OPS_CANDIDATE_7_7595|52=20230601-19:54:52.581|56=DTL|60=20230601-19:54:52.581|11=1685649288635|21=1|38=819|40=2|44=36.86|54=5|55=BAC|10=236|
20230601-19:54:52.648018000 : 8=FIX.4.2|9=106|35=8|34=27|49=DTL|52=20230601-19:54:52.623|56=OPS_CANDIDATE_7_7595|11=1685649288635|39=8|58=Unlucky|150=8|10=160|
20230601-19:54:52.822744000 : 8=FIX.4.2|9=138|35=D|34=16|49=OPS_CANDIDATE_7_7595|52=20230601-19:54:52.822|56=DTL|60=20230601-19:54:52.822|11=1685649288636|21=1|38=165|40=1|54=1|55=BAC|10=052|
20230601-19:54:52.889357000 : 8=FIX.4.2|9=134|35=8|34=28|49=DTL|52=20230601-19:54:52.864|56=OPS_CANDIDATE_7_7595|11=1685649288636|37=102178|38=165|39=0|40=1|44=0|54=1|55=BAC|150=0|10=019|
20230601-19:54:53.186336000 : 8=FIX.4.2|9=139|35=D|34=17|49=OPS_CANDIDATE_7_7595|52=20230601-19:54:53.186|56=DTL|60=20230601-19:54:53.186|11=1685649288637|21=1|38=913|40=1|54=1|55=MSFT|10=180|
20230601-19:54:53.247521000 : 8=FIX.4.2|9=151|35=8|34=29|49=DTL|52=20230601-19:54:53.221|56=OPS_CANDIDATE_7_7595|11=1685649288626|17=144895|30=NSDQ|31=32.62|32=296|37=102169|39=1|54=1|55=BAC|150=1|10=183|
20230601-19:54:53.309071000 : 8=FIX.4.2|9=139|35=D|34=18|49=OPS_CANDIDATE_7_7595|52=20230601-19:54:53.308|56=DTL|60=20230601-19:54:53.308|11=1685649288638|21=1|38=707|40=1|54=5|55=MSFT|10=179|
20230601-19:54:53.312973000 : 8=FIX.4.2|9=150|35=8|34=30|49=DTL|52=20230601-19:54:53.222|56=OPS_CANDIDATE_7_7595|11=1685649288627|17=144896|30=NSDQ|31=33.97|32=94|37=102170|39=1|54=5|55=BAC|150=1|10=130|
20230601-19:54:53.313151000 : 8=FIX.4.2|9=151|35=8|34=31|49=DTL|52=20230601-19:54:53.222|56=OPS_CANDIDATE_7_7595|11=1685649288630|17=144897|30=NSDQ|31=33.91|32=240|37=102172|39=1|54=2|55=BAC|150=1|10=161|
20230601-19:54:53.313197000 : 8=FIX.4.2|9=153|35=8|34=32|49=DTL|52=20230601-19:54:53.222|56=OPS_CANDIDATE_7_7595|11=1685649288632|17=144898|30=NSDQ|31=239.82|32=223|37=102174|39=1|54=2|55=MSFT|150=1|10=086|
20230601-19:54:53.313239000 : 8=FIX.4.2|9=153|35=8|34=33|49=DTL|52=20230601-19:54:53.222|56=OPS_CANDIDATE_7_7595|11=1685649288633|17=144899|30=NSDQ|31=239.88|32=331|37=102175|39=1|54=5|55=MSFT|150=1|10=099|
20230601-19:54:53.313278000 : 8=FIX.4.2|9=152|35=8|34=34|49=DTL|52=20230601-19:54:53.222|56=OPS_CANDIDATE_7_7595|11=1685649288634|17=144900|30=NSDQ|31=239.92|32=66|37=102176|39=2|54=5|55=MSFT|150=2|10=038|
20230601-19:54:53.313309000 : 8=FIX.4.2|9=149|35=8|34=35|49=DTL|52=20230601-19:54:53.222|56=OPS_CANDIDATE_7_7595|11=1685649288636|17=144901|30=NSDQ|31=30.1|32=80|37=102178|39=1|54=1|55=BAC|150=1|10=063|
20230601-19:54:53.313343000 : 8=FIX.4.2|9=135|35=8|34=36|49=DTL|52=20230601-19:54:53.226|56=OPS_CANDIDATE_7_7595|11=1685649288637|37=102179|38=913|39=0|40=1|44=0|54=1|55=MSFT|150=0|10=131|
20230601-19:54:53.378695000 : 8=FIX.4.2|9=106|35=8|34=37|49=DTL|52=20230601-19:54:53.349|56=OPS_CANDIDATE_7_7595|11=1685649288638|39=8|58=Unlucky|150=8|10=170|
20230601-19:54:53.505872000 : 8=FIX.4.2|9=139|35=D|34=19|49=OPS_CANDIDATE_7_7595|52=20230601-19:54:53.505|56=DTL|60=20230601-19:54:53.505|11=1685649288639|21=1|38=578|40=1|54=2|55=AAPL|10=154|
20230601-19:54:53.572417000 : 8=FIX.4.2|9=135|35=8|34=38|49=DTL|52=20230601-19:54:53.547|56=OPS_CANDIDATE_7_7595|11=1685649288639|37=102181|38=578|39=0|40=1|44=0|54=2|55=AAPL|150=0|10=114|
20230601-19:54:53.725603000 : 8=FIX.4.2|9=139|35=D|34=20|49=OPS_CANDIDATE_7_7595|52=20230601-19:54:53.725|56=DTL|60=20230601-19:54:53.725|11=1685649288640|21=1|38=395|40=1|54=5|55=AAPL|10=146|
20230601-19:54:53.792272000 : 8=FIX.4.2|9=135|35=8|34=39|49=DTL|52=20230601-19:54:53.766|56=OPS_CANDIDATE_7_7595|11=1685649288640|37=102182|38=395|39=0|40=1|44=0|54=5|55=AAPL|150=0|10=111|
20230601-19:54:53.846347000 : 8=FIX.4.2|9=138|35=D|34=21|49=OPS_CANDIDATE_7_7595|52=20230601-19:54:53.846|56=DTL|60=20230601-19:54:53.846|11=1685649288641|21=1|38=486|40=1|54=5|55=BAC|10=068|
20230601-19:54:53.912900000 : 8=FIX.4.2|9=134|35=8|34=40|49=DTL|52=20230601-19:54:53.887|56=OPS_CANDIDATE_7_7595|11=1685649288641|37=102183|38=486|39=0|40=1|44=0|54=5|55=BAC|150=0|10=021|
20230601-19:54:53.994019000 : 8=FIX.4.2|9=147|35=D|34=22|49=OPS_CANDIDATE_7_7595|52=20230601-19:54:53.993|56=DTL|60=20230601-19:54:53.993|11=1685649288643|21=1|38=618|40=2|44=31.43|54=1|55=BAC|10=230|
20230601-19:54:54.060325000 : 8=FIX.4.2|9=138|35=8|34=41|49=DTL|52=20230601-19:54:54.034|56=OPS_CANDIDATE_7_7595|11=1685649288643|37=102184|38=618|39=0|40=2|44=31.43|54=1|55=BAC|150=0|10=209|
20230601-19:54:54.108722000 : 8=FIX.4.2|9=146|35=D|34=23|49=OPS_CANDIDATE_7_7595|52=20230601-19:54:54.108|56=DTL|60=20230601-19:54:54.108|11=1685649288644|21=1|38=92|40=2|44=35.11|54=5|55=BAC|10=160|
20230601-19:54:54.175405000 : 8=FIX.4.2|9=137|35=8|34=42|49=DTL|52=20230601-19:54:54.149|56=OPS_CANDIDATE_7_7595|11=1685649288644|37=102185|38=92|39=0|40=2|44=35.11|54=5|55=BAC|150=0|10=169|
20230601-19:54:54.344861000 : 8=FIX.4.2|9=150|35=8|34=43|49=DTL|52=20230601-19:54:54.318|56=OPS_CANDIDATE_7_7595|11=1685649288626|17=144902|30=NSDQ|31=30.77|32=63|37=102169|39=2|54=1|55=BAC|150=2|10=125|
20230601-19:54:54.346655000 : 8=FIX.4.2|9=149|35=8|34=44|49=DTL|52=20230601-19:54:54.319|56=OPS_CANDIDATE_7_7595|11=1685649288627|17=144903|30=NSDQ|31=32.79|32=7|37=102170|39=1|54=5|55=BAC|150=1|10=085|
20230601-19:54:54.346742000 : 8=FIX.4.2|9=151|35=8|34=45|49=DTL|52=20230601-19:54:54.319|56=OPS_CANDIDATE_7_7595|11=1685649288630|17=144904|30=NSDQ|31=33.02|32=321|37=102172|39=1|54=2|55=BAC|150=1|10=155|
20230601-19:54:54.346781000 : 8=FIX.4.2|9=153|35=8|34=46|49=DTL|52=20230601-19:54:54.319|56=OPS_CANDIDATE_7_7595|11=1685649288632|17=144905|30=NSDQ|31=239.75|32=471|37=102174|39=2|54=2|55=MSFT|150=2|10=097|
20230601-19:54:54.346816000 : 8=FIX.4.2|9=152|35=8|34=47|49=DTL|52=20230601-19:54:54.319|56=OPS_CANDIDATE_7_7595|11=1685649288633|17=144906|30=NSDQ|31=237.63|32=60|37=102175|39=1|54=5|55=MSFT|150=1|10=042|
20230601-19:54:54.346850000 : 8=FIX.4.2|9=150|35=8|34=48|49=DTL|52=20230601-19:54:54.319|56=OPS_CANDIDATE_7_7595|11=1685649288636|17=144907|30=NSDQ|31=31.11|32=57|37=102178|39=1|54=1|55=BAC|150=1|10=127|
20230601-19:54:54.346884000 : 8=FIX.4.2|9=152|35=8|34=49|49=DTL|52=20230601-19:54:54.319|56=OPS_CANDIDATE_7_7595|11=1685649288637|17=144908|30=NSDQ|31=241.1|32=913|37=102179|39=2|54=1|55=MSFT|150=2|10=046|
20230601-19:54:54.346917000 : 8=FIX.4.2|9=153|35=8|34=50|49=DTL|52=20230601-19:54:54.319|56=OPS_CANDIDATE_7_7595|11=1685649288639|17=144909|30=NSDQ|31=152.71|32=578|37=102181|39=2|54=2|55=AAPL|150=2|10=071|
20230601-19:54:54.346951000 : 8=FIX.4.2|9=153|35=8|34=51|49=DTL|52=20230601-19:54:54.319|56=OPS_CANDIDATE_7_7595|11=1685649288640|17=144910|30=NSDQ|31=151.88|32=395|37=102182|39=2|54=5|55=AAPL|150=2|10=064|
20230601-19:54:54.410894000 : 8=FIX.4.2|9=151|35=8|34=52|49=DTL|52=20230601-19:54:54.319|56=OPS_CANDIDATE_7_7595|11=1685649288641|17=144911|30=NSDQ|31=34.74|32=486|37=102183|39=2|54=5|55=BAC|150=2|10=182|
20230601-19:54:54.411102000 : 8=FIX.4.2|9=151|35=8|34=53|49=DTL|52=20230601-19:54:54.319|56=OPS_CANDIDATE_7_7595|11=1685649288643|17=144912|30=NSDQ|31=30.47|32=618|37=102184|39=2|54=1|55=BAC|150=2|10=176|
20230601-19:54:54.411153000 : 8=FIX.4.2|9=150|35=8|34=54|49=DTL|52=20230601-19:54:54.319|56=OPS_CANDIDATE_7_7595|11=1685649288644|17=144913|30=NSDQ|31=31.51|32=92|37=102185|39=2|54=5|55=BAC|150=2|10=127|
20230601-19:54:54.423591000 : 8=FIX.4.2|9=149|35=D|34=24|49=OPS_CANDIDATE_7_7595|52=20230601-19:54:54.423|56=DTL|60=20230601-19:54:54.423|11=1685649288645|21=1|38=146|40=2|44=159.02|54=5|55=AAPL|10=100|
20230601-19:54:54.491072000 : 8=FIX.4.2|9=140|35=8|34=55|49=DTL|52=20230601-19:54:54.465|56=OPS_CANDIDATE_7_7595|11=1685649288645|37=102186|38=146|39=0|40=2|44=159.02|54=5|55=AAPL|150=0|10=105|
20230601-19:54:54.674352000 : 8=FIX.4.2|9=139|35=D|34=25|49=OPS_CANDIDATE_7_7595|52=20230601-19:54:54.674|56=DTL|60=20230601-19:54:54.674|11=1685649288646|21=1|38=472|40=1|54=5|55=AAPL|10=161|
20230601-19:54:54.741175000 : 8=FIX.4.2|9=135|35=8|34=56|49=DTL|52=20230601-19:54:54.715|56=OPS_CANDIDATE_7_7595|11=1685649288646|37=102187|38=472|39=0|40=1|44=0|54=5|55=AAPL|150=0|10=112|
20230601-19:54:55.012153000 : 8=FIX.4.2|9=139|35=D|34=26|49=OPS_CANDIDATE_7_7595|52=20230601-19:54:55.012|56=DTL|60=20230601-19:54:55.011|11=1685649288647|21=1|38=647|40=1|54=1|55=MSFT|10=164|
20230601-19:54:55.079549000 : 8=FIX.4.2|9=135|35=8|34=57|49=DTL|52=20230601-19:54:55.053|56=OPS_CANDIDATE_7_7595|11=1685649288647|37=102188|38=647|39=0|40=1|44=0|54=1|55=MSFT|150=0|10=139|
20230601-19:54:55.212839000 : 8=FIX.4.2|9=139|35=D|34=27|49=OPS_CANDIDATE_7_7595|52=20230601-19:54:55.212|56=DTL|60=20230601-19:54:55.212|11=1685649288648|21=1|38=780|40=1|54=1|55=MSFT|10=169|
20230601-19:54:55.279570000 : 8=FIX.4.2|9=106|35=8|34=58|49=DTL|52=20230601-19:54:55.254|56=OPS_CANDIDATE_7_7595|11=1685649288648|39=8|58=Unlucky|150=8|10=171|
20230601-19:54:55.448631000 : 8=FIX.4.2|9=149|35=8|34=59|49=DTL|52=20230601-19:54:55.422|56=OPS_CANDIDATE_7_7595|11=1685649288627|17=144914|30=NSDQ|31=33.56|32=5|37=102170|39=1|54=5|55=BAC|150=1|10=083|
20230601-19:54:55.484673000 : 8=FIX.4.2|9=149|35=D|34=28|49=OPS_CANDIDATE_7_7595|52=20230601-19:54:55.484|56=DTL|60=20230601-19:54:55.484|11=1685649288649|21=1|38=522|40=2|44=154.66|54=2|55=AAPL|10=124|
20230601-19:54:55.514668000 : 8=FIX.4.2|9=150|35=8|34=60|49=DTL|52=20230601-19:54:55.423|56=OPS_CANDIDATE_7_7595|11=1685649288630|17=144915|30=NSDQ|31=30.19|32=89|37=102172|39=2|54=2|55=BAC|150=2|10=120|
20230601-19:54:55.514860000 : 8=FIX.4.2|9=152|35=8|34=61|49=DTL|52=20230601-19:54:55.423|56=OPS_CANDIDATE_7_7595|11=1685649288633|17=144916|30=NSDQ|31=242.21|32=19|37=102175|39=1|54=5|55=MSFT|150=1|10=030|
20230601-19:54:55.514909000 : 8=FIX.4.2|9=149|35=8|34=62|49=DTL|52=20230601-19:54:55.423|56=OPS_CANDIDATE_7_7595|11=1685649288636|17=144917|30=NSDQ|31=34.14|32=1|37=102178|39=1|54=1|55=BAC|150=1|10=076|
20230601-19:54:55.514952000 : 8=FIX.4.2|9=150|35=8|34=63|49=DTL|52=20230601-19:54:55.423|56=OPS_CANDIDATE_7_7595|11=1685649288645|17=144918|30=NSDQ|31=151|32=146|37=102186|39=2|54=5|55=AAPL|150=2|10=170|
20230601-19:54:55.514994000 : 8=FIX.4.2|9=152|35=8|34=64|49=DTL|52=20230601-19:54:55.423|56=OPS_CANDIDATE_7_7595|11=1685649288646|17=144919|30=NSDQ|31=150.8|32=472|37=102187|39=2|54=5|55=AAPL|150=2|10=023|
20230601-19:54:55.515036000 : 8=FIX.4.2|9=153|35=8|34=65|49=DTL|52=20230601-19:54:55.423|56=OPS_CANDIDATE_7_7595|11=1685649288647|17=144920|30=NSDQ|31=241.54|32=236|37=102188|39=1|54=1|55=MSFT|150=1|10=089|
20230601-19:54:55.597270000 : 8=FIX.4.2|9=147|35=D|34=29|49=OPS_CANDIDATE_7_7595|52=20230601-19:54:55.597|56=DTL|60=20230601-19:54:55.597|11=1685649288650|21=1|38=312|40=2|44=37.14|54=1|55=BAC|10=234|
20230601-19:54:55.627523000 : 8=FIX.4.2|9=140|35=8|34=66|49=DTL|52=20230601-19:54:55.525|56=OPS_CANDIDATE_7_7595|11=1685649288649|37=102190|38=522|39=0|40=2|44=154.66|54=2|55=AAPL|150=0|10=104|
20230601-19:54:55.695065000 : 8=FIX.4.2|9=138|35=8|34=67|49=DTL|52=20230601-19:54:55.637|56=OPS_CANDIDATE_7_7595|11=1685649288650|37=102191|38=312|39=0|40=2|44=37.14|54=1|55=BAC|150=0|10=218|
20230601-19:54:55.873146000 : 8=FIX.4.2|9=139|35=D|34=30|49=OPS_CANDIDATE_7_7595|52=20230601-19:54:55.873|56=DTL|60=20230601-19:54:55.872|11=1685649288651|21=1|38=549|40=1|54=1|55=AAPL|10=157|
20230601-19:54:55.938992000 : 8=FIX.4.2|9=135|35=8|34=68|49=DTL|52=20230601-19:54:55.914|56=OPS_CANDIDATE_7_7595|11=1685649288651|37=102192|38=549|39=0|40=1|44=0|54=1|55=AAPL|150=0|10=110|
20230601-19:54:56.073891000 : 8=FIX.4.2|9=139|35=D|34=31|49=OPS_CANDIDATE_7_7595|52=20230601-19:54:56.073|56=DTL|60=20230601-19:54:56.073|11=1685649288652|21=1|38=853|40=1|54=5|55=AAPL|10=148|
20230601-19:54:56.140112000 : 8=FIX.4.2|9=135|35=8|34=69|49=DTL|52=20230601-19:54:56.115|56=OPS_CANDIDATE_7_7595|11=1685649288652|37=102193|38=853|39=0|40=1|44=0|54=5|55=AAPL|150=0|10=109|
20230601-19:54:56.237593000 : 8=FIX.4.2|9=149|35=D|34=32|49=OPS_CANDIDATE_7_7595|52=20230601-19:54:56.237|56=DTL|60=20230601-19:54:56.237|11=1685649288653|21=1|38=262|40=2|44=177.41|54=1|55=AAPL|10=106|
20230601-19:54:56.303806000 : 8=FIX.4.2|9=106|35=8|34=70|49=DTL|52=20230601-19:54:56.278|56=OPS_CANDIDATE_7_7595|11=1685649288653|39=8|58=Unlucky|150=8|10=168|
20230601-19:54:56.430293000 : 8=FIX.4.2|9=148|35=D|34=33|49=OPS_CANDIDATE_7_7595|52=20230601-19:54:56.430|56=DTL|60=20230601-19:54:56.430|11=1685649288654|21=1|38=81|40=2|44=307.58|54=2|55=MSFT|10=080|
20230601-19:54:56.544260000 : 8=FIX.4.2|9=149|35=8|34=71|49=DTL|52=20230601-19:54:56.518|56=OPS_CANDIDATE_7_7595|11=1685649288627|17=144921|30=NSDQ|31=30.77|32=5|37=102170|39=1|54=5|55=BAC|150=1|10=082|
20230601-19:54:56.610879000 : 8=FIX.4.2|9=150|35=8|34=72|49=DTL|52=20230601-19:54:56.518|56=OPS_CANDIDATE_7_7595|11=1685649288633|17=144922|30=NSDQ|31=237.4|32=4|37=102175|39=1|54=5|55=MSFT|150=1|10=192|
20230601-19:54:56.611099000 : 8=FIX.4.2|9=150|35=8|34=73|49=DTL|52=20230601-19:54:56.518|56=OPS_CANDIDATE_7_7595|11=1685649288636|17=144923|30=NSDQ|31=33.63|32=12|37=102178|39=1|54=1|55=BAC|150=1|10=126|
20230601-19:54:56.611154000 : 8=FIX.4.2|9=152|35=8|34=74|49=DTL|52=20230601-19:54:56.519|56=OPS_CANDIDATE_7_7595|11=1685649288647|17=144924|30=NSDQ|31=238.22|32=83|37=102188|39=1|54=1|55=MSFT|150=1|10=052|
20230601-19:54:56.611204000 : 8=FIX.4.2|9=153|35=8|34=75|49=DTL|52=20230601-19:54:56.519|56=OPS_CANDIDATE_7_7595|11=1685649288649|17=144925|30=NSDQ|31=152.09|32=515|37=102190|39=1|54=2|55=AAPL|150=1|10=071|
20230601-19:54:56.611255000 : 8=FIX.4.2|9=151|35=8|34=76|49=DTL|52=20230601-19:54:56.519|56=OPS_CANDIDATE_7_7595|11=1685649288650|17=144926|30=NSDQ|31=32.09|32=312|37=102191|39=2|54=1|55=BAC|150=2|10=177|
20230601-19:54:56.611305000 : 8=FIX.4.2|9=153|35=8|34=77|49=DTL|52=20230601-19:54:56.519|56=OPS_CANDIDATE_7_7595|11=1685649288651|17=144927|30=NSDQ|31=150.79|32=549|37=102192|39=2|54=1|55=AAPL|150=2|10=083|
20230601-19:54:56.611355000 : 8=FIX.4.2|9=153|35=8|34=78|49=DTL|52=20230601-19:54:56.519|56=OPS_CANDIDATE_7_7595|11=1685649288652|17=144928|30=NSDQ|31=152.64|32=853|37=102193|39=2|54=5|55=AAPL|150=2|10=085|
20230601-19:54:56.611404000 : 8=FIX.4.2|9=139|35=8|34=79|49=DTL|52=20230601-19:54:56.519|56=OPS_CANDIDATE_7_7595|11=1685649288654|37=102195|38=81|39=0|40=2|44=307.58|54=2|55=MSFT|150=0|10=102|
20230601-19:54:56.665051000 : 8=FIX.4.2|9=138|35=D|34=34|49=OPS_CANDIDATE_7_7595|52=20230601-19:54:56.664|56=DTL|60=20230601-19:54:56.664|11=1685649288655|21=1|38=390|40=1|54=1|55=BAC|10=069|
20230601-19:54:56.731687000 : 8=FIX.4.2|9=134|35=8|34=80|49=DTL|52=20230601-19:54:56.706|56=OPS_CANDIDATE_7_7595|11=1685649288655|37=102196|38=390|39=0|40=1|44=0|54=1|55=BAC|150=0|10=017|
20230601-19:54:56.942843000 : 8=FIX.4.2|9=139|35=D|34=35|49=OPS_CANDIDATE_7_7595|52=20230601-19:54:56.942|56=DTL|60=20230601-19:54:56.942|11=1685649288656|21=1|38=382|40=1|54=1|55=MSFT|10=187|
20230601-19:54:57.008861000 : 8=FIX.4.2|9=135|35=8|34=81|49=DTL|52=20230601-19:54:56.983|56=OPS_CANDIDATE_7_7595|11=1685649288656|37=102197|38=382|39=0|40=1|44=0|54=1|55=MSFT|150=0|10=145|
20230601-19:54:57.150449000 : 8=FIX.4.2|9=149|35=D|34=36|49=OPS_CANDIDATE_7_7595|52=20230601-19:54:57.150|56=DTL|60=20230601-19:54:57.150|11=1685649288658|21=1|38=926|40=2|44=241.91|54=2|55=MSFT|10=138|
20230601-19:54:57.217405000 : 8=FIX.4.2|9=140|35=8|34=82|49=DTL|52=20230601-19:54:57.191|56=OPS_CANDIDATE_7_7595|11=1685649288658|37=102198|38=926|39=0|40=2|44=241.91|54=2|55=MSFT|150=0|10=142|
20230601-19:54:57.433257000 : 8=FIX.4.2|9=148|35=D|34=37|49=OPS_CANDIDATE_7_7595|52=20230601-19:54:57.433|56=DTL|60=20230601-19:54:57.433|11=1685649288659|21=1|38=68|40=2|44=176.09|54=2|55=AAPL|10=074|
20230601-19:54:57.500603000 : 8=FIX.4.2|9=139|35=8|34=83|49=DTL|52=20230601-19:54:57.474|56=OPS_CANDIDATE_7_7595|11=1685649288659|37=102199|38=68|39=0|40=2|44=176.09|54=2|55=AAPL|150=0|10=084|
20230601-19:54:57.565865000 : 8=FIX.4.2|9=149|35=D|34=38|49=OPS_CANDIDATE_7_7595|52=20230601-19:54:57.565|56=DTL|60=20230601-19:54:57.565|11=1685649288660|21=1|38=497|40=2|44=258.42|54=5|55=MSFT|10=163|
20230601-19:54:57.665926000 : 8=FIX.4.2|9=149|35=8|34=84|49=DTL|52=20230601-19:54:57.640|56=OPS_CANDIDATE_7_7595|11=1685649288627|17=144929|30=NSDQ|31=30.59|32=4|37=102170|39=2|54=5|55=BAC|150=2|10=092|
20230601-19:54:57.667369000 : 8=FIX.4.2|9=152|35=8|34=85|49=DTL|52=20230601-19:54:57.640|56=OPS_CANDIDATE_7_7595|11=1685649288633|17=144930|30=NSDQ|31=237.25|32=12|37=102175|39=2|54=5|55=MSFT|150=2|10=038|
20230601-19:54:57.667458000 : 8=FIX.4.2|9=150|35=8|34=86|49=DTL|52=20230601-19:54:57.640|56=OPS_CANDIDATE_7_7595|11=1685649288636|17=144931|30=NSDQ|31=31.03|32=10|37=102178|39=1|54=1|55=BAC|150=1|10=116|
20230601-19:54:57.667507000 : 8=FIX.4.2|9=153|35=8|34=87|49=DTL|52=20230601-19:54:57.640|56=OPS_CANDIDATE_7_7595|11=1685649288647|17=144932|30=NSDQ|31=239.29|32=154|37=102188|39=1|54=1|55=MSFT|150=1|10=107|
20230601-19:54:57.667550000 : 8=FIX.4.2|9=151|35=8|34=88|49=DTL|52=20230601-19:54:57.641|56=OPS_CANDIDATE_7_7595|11=1685649288649|17=144933|30=NSDQ|31=152.84|32=7|37=102190|39=2|54=2|55=AAPL|150=2|10=230|
20230601-19:54:57.667603000 : 8=FIX.4.2|9=152|35=8|34=89|49=DTL|52=20230601-19:54:57.641|56=OPS_CANDIDATE_7_7595|11=1685649288654|17=144934|30=NSDQ|31=242.44|32=81|37=102195|39=2|54=2|55=MSFT|150=2|10=052|
20230601-19:54:57.667646000 : 8=FIX.4.2|9=150|35=8|34=90|49=DTL|52=20230601-19:54:57.641|56=OPS_CANDIDATE_7_7595|11=1685649288655|17=144935|30=NSDQ|31=33.03|32=38|37=102196|39=1|54=1|55=BAC|150=1|10=129|
20230601-19:54:57.667693000 : 8=FIX.4.2|9=153|35=8|34=91|49=DTL|52=20230601-19:54:57.641|56=OPS_CANDIDATE_7_7595|11=1685649288656|17=144936|30=NSDQ|31=238.23|32=382|37=102197|39=2|54=1|55=MSFT|150=2|10=105|
20230601-19:54:57.667738000 : 8=FIX.4.2|9=153|35=8|34=92|49=DTL|52=20230601-19:54:57.641|56=OPS_CANDIDATE_7_7595|11=1685649288658|17=144937|30=NSDQ|31=241.89|32=582|37=102198|39=1|54=2|55=MSFT|150=1|10=117|
20230601-19:54:57.731456000 : 8=FIX.4.2|9=152|35=8|34=93|49=DTL|52=20230601-19:54:57.641|56=OPS_CANDIDATE_7_7595|11=1685649288659|17=144938|30=NSDQ|31=152.16|32=68|37=102199|39=2|54=2|55=AAPL|150=2|10=036|
20230601-19:54:57.731687000 : 8=FIX.4.2|9=140|35=8|34=94|49=DTL|52=20230601-19:54:57.642|56=OPS_CANDIDATE_7_7595|11=1685649288660|37=102200|38=497|39=0|40=2|44=258.42|54=5|55=MSFT|150=0|10=133|
20230601-19:54:57.815594000 : 8=FIX.4.2|9=139|35=D|34=39|49=OPS_CANDIDATE_7_7595|52=20230601-19:54:57.815|56=DTL|60=20230601-19:54:57.815|11=1685649288661|21=1|38=925|40=1|54=1|55=AAPL|10=162|
20230601-19:54:57.881988000 : 8=FIX.4.2|9=135|35=8|34=95|49=DTL|52=20230601-19:54:57.856|56=OPS_CANDIDATE_7_7595|11=1685649288661|37=102201|38=925|39=0|40=1|44=0|54=1|55=AAPL|150=0|10=107|
20230601-19:54:57.996262000 : 8=FIX.4.2|9=147|35=D|34=40|49=OPS_CANDIDATE_7_7595|52=20230601-19:54:57.996|56=DTL|60=20230601-19:54:57.996|11=1685649288662|21=1|38=818|40=2|44=39.66|54=2|55=BAC|10=005|
20230601-19:54:58.063041000 : 8=FIX.4.2|9=106|35=8|34=96|49=DTL|52=20230601-19:54:58.037|56=OPS_CANDIDATE_7_7595|11=1685649288662|39=8|58=Unlucky|150=8|10=171|
20230601-19:54:58.116855000 : 8=FIX.4.2|9=138|35=D|34=41|49=OPS_CANDIDATE_7_7595|52=20230601-19:54:58.116|56=DTL|60=20230601-19:54:58.116|11=1685649288663|21=1|38=23|40=1|54=5|55=AAPL|10=091|
20230601-19:54:58.183442000 : 8=FIX.4.2|9=134|35=8|34=97|49=DTL|52=20230601-19:54:58.157|56=OPS_CANDIDATE_7_7595|11=1685649288663|37=102203|38=23|39=0|40=1|44=0|54=5|55=AAPL|150=0|10=052|
20230601-19:54:58.290379000 : 8=FIX.4.2|9=139|35=D|34=42|49=OPS_CANDIDATE_7_7595|52=20230601-19:54:58.290|56=DTL|60=20230601-19:54:58.290|11=1685649288664|21=1|38=501|40=1|54=1|55=AAPL|10=145|
20230601-19:54:58.356788000 : 8=FIX.4.2|9=135|35=8|34=98|49=DTL|52=20230601-19:54:58.331|56=OPS_CANDIDATE_7_7595|11=1685649288664|37=102204|38=501|39=0|40=1|44=0|54=1|55=AAPL|150=0|10=095|
20230601-19:54:58.633253000 : 8=FIX.4.2|9=147|35=D|34=43|49=OPS_CANDIDATE_7_7595|52=20230601-19:54:58.633|56=DTL|60=20230601-19:54:58.633|11=1685649288665|21=1|38=511|40=2|44=32.71|54=1|55=BAC|10=223|
20230601-19:54:58.778829000 : 8=FIX.4.2|9=149|35=8|34=99|49=DTL|52=20230601-19:54:58.753|56=OPS_CANDIDATE_7_7595|11=1685649288636|17=144939|30=NSDQ|31=33.87|32=5|37=102178|39=2|54=1|55=BAC|150=2|10=114|
20230601-19:54:58.821984000 : 8=FIX.4.2|9=147|35=D|34=44|49=OPS_CANDIDATE_7_7595|52=20230601-19:54:58.821|56=DTL|60=20230601-19:54:58.821|11=1685649288666|21=1|38=881|40=2|44=37.34|54=2|55=BAC|10=238|
20230601-19:54:58.845159000 : 8=FIX.4.2|9=153|35=8|34=100|49=DTL|52=20230601-19:54:58.753|56=OPS_CANDIDATE_7_7595|11=1685649288647|17=144940|30=NSDQ|31=239.61|32=14|37=102188|39=1|54=1|55=MSFT|150=1|10=089|
20230601-19:54:58.845423000 : 8=FIX.4.2|9=152|35=8|34=101|49=DTL|52=20230601-19:54:58.753|56=OPS_CANDIDATE_7_7595|11=1685649288655|17=144941|30=NSDQ|31=32.46|32=156|37=102196|39=1|54=1|55=BAC|150=1|10=229|
20230601-19:54:58.845469000 : 8=FIX.4.2|9=154|35=8|34=102|49=DTL|52=20230601-19:54:58.753|56=OPS_CANDIDATE_7_7595|11=1685649288658|17=144942|30=NSDQ|31=239.11|32=344|37=102198|39=2|54=2|55=MSFT|150=2|10=149|
20230601-19:54:58.845527000 : 8=FIX.4.2|9=154|35=8|34=103|49=DTL|52=20230601-19:54:58.753|56=OPS_CANDIDATE_7_7595|11=1685649288660|17=144943|30=NSDQ|31=239.18|32=144|37=102200|39=1|54=5|55=MSFT|150=1|10=134|
20230601-19:54:58.845566000 : 8=FIX.4.2|9=153|35=8|34=104|49=DTL|52=20230601-19:54:58.753|56=OPS_CANDIDATE_7_7595|11=1685649288661|17=144944|30=NSDQ|31=151.12|32=87|37=102201|39=1|54=1|55=AAPL|150=1|10=050|
20230601-19:54:58.845605000 : 8=FIX.4.2|9=153|35=8|34=105|49=DTL|52=20230601-19:54:58.754|56=OPS_CANDIDATE_7_7595|11=1685649288663|17=144945|30=NSDQ|31=151.23|32=23|37=102203|39=2|54=5|55=AAPL|150=2|10=055|
20230601-19:54:58.845644000 : 8=FIX.4.2|9=154|35=8|34=106|49=DTL|52=20230601-19:54:58.754|56=OPS_CANDIDATE_7_7595|11=1685649288664|17=144946|30=NSDQ|31=151.82|32=266|37=102204|39=1|54=1|55=AAPL|150=1|10=116|
20230601-19:54:58.845683000 : 8=FIX.4.2|9=139|35=8|34=107|49=DTL|52=20230601-19:54:58.754|56=OPS_CANDIDATE_7_7595|11=1685649288665|37=102205|38=511|39=0|40=2|44=32.71|54=1|55=BAC|150=0|10=010|
20230601-19:54:58.911393000 : 8=FIX.4.2|9=139|35=8|34=108|49=DTL|52=20230601-19:54:58.863|56=OPS_CANDIDATE_7_7595|11=1685649288666|37=102206|38=881|39=0|40=2|44=37.34|54=2|55=BAC|150=0|10=029|
20230601-19:54:59.199885000 : 8=FIX.4.2|9=148|35=D|34=45|49=OPS_CANDIDATE_7_7595|52=20230601-19:54:59.199|56=DTL|60=20230601-19:54:59.199|11=1685649288667|21=1|38=16|40=2|44=162.39|54=1|55=AAPL|10=084|
20230601-19:54:59.266442000 : 8=FIX.4.2|9=140|35=8|34=109|49=DTL|52=20230601-19:54:59.240|56=OPS_CANDIDATE_7_7595|11=1685649288667|37=102207|38=16|39=0|40=2|44=162.39|54=1|55=AAPL|150=0|10=095|
20230601-19:54:59.363508000 : 8=FIX.4.2|9=138|35=D|34=46|49=OPS_CANDIDATE_7_7595|52=20230601-19:54:59.363|56=DTL|60=20230601-19:54:59.363|11=1685649288668|21=1|38=173|40=1|54=5|55=BAC|10=077|
20230601-19:54:59.429997000 : 8=FIX.4.2|9=135|35=8|34=110|49=DTL|52=20230601-19:54:59.404|56=OPS_CANDIDATE_7_7595|11=1685649288668|37=102208|38=173|39=0|40=1|44=0|54=5|55=BAC|150=0|10=059|
20230601-19:54:59.651329000 : 8=FIX.4.2|9=139|35=D|34=47|49=OPS_CANDIDATE_7_7595|52=20230601-19:54:59.651|56=DTL|60=20230601-19:54:59.651|11=1685649288669|21=1|38=162|40=1|54=1|55=MSFT|10=190|
20230601-19:54:59.697880000 : 8=FIX.4.2|9=146|35=F|34=48|49=OPS_CANDIDATE_7_7595|52=20230601-19:54:59.697|56=DTL|60=20230601-19:54:59.697|11=1685649299697|38=549|41=1685649288651|54=1|55=AAPL|10=118|
20230601-19:54:59.718131000 : 8=FIX.4.2|9=136|35=8|34=111|49=DTL|52=20230601-19:54:59.692|56=OPS_CANDIDATE_7_7595|11=1685649288669|37=102209|38=162|39=0|40=1|44=0|54=1|55=MSFT|150=0|10=182|
20230601-19:54:59.864663000 : 8=FIX.4.2|9=139|35=D|34=49|49=OPS_CANDIDATE_7_7595|52=20230601-19:54:59.864|56=DTL|60=20230601-19:54:59.864|11=1685649288670|21=1|38=733|40=1|54=2|55=AAPL|10=173|
20230601-19:54:59.875748000 : 8=FIX.4.2|9=154|35=8|34=112|49=DTL|52=20230601-19:54:59.850|56=OPS_CANDIDATE_7_7595|11=1685649288647|17=144947|30=NSDQ|31=238.19|32=139|37=102188|39=1|54=1|55=MSFT|150=1|10=157|
20230601-19:54:59.875963000 : 8=FIX.4.2|9=152|35=8|34=113|49=DTL|52=20230601-19:54:59.850|56=OPS_CANDIDATE_7_7595|11=1685649288655|17=144948|30=NSDQ|31=33.45|32=196|37=102196|39=2|54=1|55=BAC|150=2|10=244|
20230601-19:54:59.876017000 : 8=FIX.4.2|9=154|35=8|34=114|49=DTL|52=20230601-19:54:59.850|56=OPS_CANDIDATE_7_7595|11=1685649288660|17=144949|30=NSDQ|31=240.34|32=240|37=102200|39=1|54=5|55=MSFT|150=1|10=128|
20230601-19:54:59.876065000 : 8=FIX.4.2|9=154|35=8|34=115|49=DTL|52=20230601-19:54:59.850|56=OPS_CANDIDATE_7_7595|11=1685649288661|17=144950|30=NSDQ|31=152.47|32=144|37=102201|39=1|54=1|55=AAPL|150=1|10=100|
20230601-19:54:59.876111000 : 8=FIX.4.2|9=153|35=8|34=116|49=DTL|52=20230601-19:54:59.850|56=OPS_CANDIDATE_7_7595|11=1685649288664|17=144951|30=NSDQ|31=151.49|32=23|37=102204|39=1|54=1|55=AAPL|150=1|10=056|
20230601-19:54:59.876157000 : 8=FIX.4.2|9=151|35=8|34=117|49=DTL|52=20230601-19:54:59.850|56=OPS_CANDIDATE_7_7595|11=1685649288665|17=144952|30=NSDQ|31=30.97|32=28|37=102205|39=1|54=1|55=BAC|150=1|10=182|
20230601-19:54:59.876203000 : 8=FIX.4.2|9=152|35=8|34=118|49=DTL|52=20230601-19:54:59.850|56=OPS_CANDIDATE_7_7595|11=1685649288666|17=144953|30=NSDQ|31=30.28|32=644|37=102206|39=1|54=2|55=BAC|150=1|10=234|
20230601-19:54:59.876257000 : 8=FIX.4.2|9=152|35=8|34=119|49=DTL|52=20230601-19:54:59.850|56=OPS_CANDIDATE_7_7595|11=1685649288667|17=144954|30=NSDQ|31=152.22|32=7|37=102207|39=1|54=1|55=AAPL|150=1|10=013|
20230601-19:54:59.876293000 : 8=FIX.4.2|9=150|35=8|34=120|49=DTL|52=20230601-19:54:59.850|56=OPS_CANDIDATE_7_7595|11=1685649288668|17=144955|30=NSDQ|31=34.96|32=7|37=102208|39=1|54=5|55=BAC|150=1|10=140|
20230601-19:54:59.918309000 : 8=FIX.4.2|9=146|35=F|34=50|49=OPS_CANDIDATE_7_7595|52=20230601-19:54:59.918|56=DTL|60=20230601-19:54:59.918|11=1685649299918|38=913|41=1685649288637|54=1|55=MSFT|10=126|
20230601-19:54:59.941524000 : 8=FIX.4.2|9=154|35=8|34=121|49=DTL|52=20230601-19:54:59.850|56=OPS_CANDIDATE_7_7595|11=1685649288669|17=144956|30=NSDQ|31=241.27|32=162|37=102209|39=2|54=1|55=MSFT|150=2|10=146|
20230601-19:54:59.941696000 : 8=FIX.4.2|9=135|35=9|34=122|49=DTL|52=20230601-19:54:59.851|56=OPS_CANDIDATE_7_7595|11=1685649299697|37=NONE|39=8|41=1685649288651|58=Unknown order id|10=053|
20230601-19:54:59.941751000 : 8=FIX.4.2|9=136|35=8|34=123|49=DTL|52=20230601-19:54:59.905|56=OPS_CANDIDATE_7_7595|11=1685649288670|37=102210|38=733|39=0|40=1|44=0|54=2|55=AAPL|150=0|10=143|
20230601-19:55:00.046022000 : 8=FIX.4.2|9=138|35=D|34=51|49=OPS_CANDIDATE_7_7595|52=20230601-19:55:00.045|56=DTL|60=20230601-19:55:00.045|11=1685649288672|21=1|38=288|40=1|54=2|55=BAC|10=040|
20230601-19:55:00.048038000 : 8=FIX.4.2|9=135|35=9|34=124|49=DTL|52=20230601-19:54:59.971|56=OPS_CANDIDATE_7_7595|11=1685649299918|37=NONE|39=8|41=1685649288637|58=Unknown order id|10=058|
20230601-19:55:00.061425000 : 8=FIX.4.2|9=146|35=F|34=52|49=OPS_CANDIDATE_7_7595|52=20230601-19:55:00.061|56=DTL|60=20230601-19:55:00.061|11=1685649300061|38=472|41=1685649288646|54=5|55=AAPL|10=028|
20230601-19:55:00.113884000 : 8=FIX.4.2|9=135|35=8|34=125|49=DTL|52=20230601-19:55:00.087|56=OPS_CANDIDATE_7_7595|11=1685649288672|37=102211|38=288|39=0|40=1|44=0|54=2|55=BAC|150=0|10=052|
20230601-19:55:00.179974000 : 8=FIX.4.2|9=135|35=9|34=126|49=DTL|52=20230601-19:55:00.153|56=OPS_CANDIDATE_7_7595|11=1685649300061|37=NONE|39=8|41=1685649288646|58=Unknown order id|10=011|
20230601-19:55:00.323164000 : 8=FIX.4.2|9=139|35=D|34=53|49=OPS_CANDIDATE_7_7595|52=20230601-19:55:00.323|56=DTL|60=20230601-19:55:00.322|11=1685649288673|21=1|38=873|40=1|54=2|55=MSFT|10=157|
20230601-19:55:00.364744000 : 8=FIX.4.2|9=146|35=F|34=54|49=OPS_CANDIDATE_7_7595|52=20230601-19:55:00.364|56=DTL|60=20230601-19:55:00.364|11=1685649300364|38=162|41=1685649288669|54=1|55=MSFT|10=073|
20230601-19:55:00.389703000 : 8=FIX.4.2|9=136|35=8|34=127|49=DTL|52=20230601-19:55:00.363|56=OPS_CANDIDATE_7_7595|11=1685649288673|37=102212|38=873|39=0|40=1|44=0|54=2|55=MSFT|150=0|10=170|
20230601-19:55:00.456160000 : 8=FIX.4.2|9=135|35=9|34=128|49=DTL|52=20230601-19:55:00.430|56=OPS_CANDIDATE_7_7595|11=1685649300364|37=NONE|39=8|41=1685649288669|58=Unknown order id|10=022|
20230601-19:55:00.583417000 : 8=FIX.4.2|9=145|35=F|34=55|49=OPS_CANDIDATE_7_7595|52=20230601-19:55:00.583|56=DTL|60=20230601-19:55:00.583|11=1685649300583|38=819|41=1685649288635|54=5|55=BAC|10=228|
20230601-19:55:00.649630000 : 8=FIX.4.2|9=135|35=9|34=129|49=DTL|52=20230601-19:55:00.624|56=OPS_CANDIDATE_7_7595|11=1685649300583|37=NONE|39=8|41=1685649288635|58=Unknown order id|10=024|
20230601-19:55:00.709008000 : 8=FIX.4.2|9=146|35=F|34=56|49=OPS_CANDIDATE_7_7595|52=20230601-19:55:00.708|56=DTL|60=20230601-19:55:00.708|11=1685649300708|38=758|41=1685649288621|54=2|55=MSFT|10=081|
20230601-19:55:00.720431000 : 8=FIX.4.2|9=148|35=D|34=57|49=OPS_CANDIDATE_7_7595|52=20230601-19:55:00.720|56=DTL|60=20230601-19:55:00.720|11=1685649288674|21=1|38=921|40=2|44=307.7|54=5|55=MSFT|10=072|
20230601-19:55:00.775796000 : 8=FIX.4.2|9=135|35=9|34=130|49=DTL|52=20230601-19:55:00.750|56=OPS_CANDIDATE_7_7595|11=1685649300708|37=NONE|39=8|41=1685649288621|58=Unknown order id|10=010|
20230601-19:55:00.842783000 : 8=FIX.4.2|9=140|35=8|34=131|49=DTL|52=20230601-19:55:00.816|56=OPS_CANDIDATE_7_7595|11=1685649288674|37=102213|38=921|39=0|40=2|44=307.7|54=5|55=MSFT|150=0|10=114|
20230601-19:55:00.858034000 : 8=FIX.4.2|9=149|35=D|34=58|49=OPS_CANDIDATE_7_7595|52=20230601-19:55:00.857|56=DTL|60=20230601-19:55:00.857|11=1685649288675|21=1|38=367|40=2|44=247.54|54=2|55=MSFT|10=151|
20230601-19:55:00.965623000 : 8=FIX.4.2|9=146|35=F|34=59|49=OPS_CANDIDATE_7_7595|52=20230601-19:55:00.965|56=DTL|60=20230601-19:55:00.965|11=1685649300965|38=707|41=1685649288638|54=5|55=MSFT|10=104|
20230601-19:55:00.977415000 : 8=FIX.4.2|9=151|35=8|34=132|49=DTL|52=20230601-19:55:00.951|56=OPS_CANDIDATE_7_7595|11=1685649288647|17=144957|30=NSDQ|31=242.4|32=5|37=102188|39=1|54=1|55=MSFT|150=1|10=239|
20230601-19:55:00.978827000 : 8=FIX.4.2|9=153|35=8|34=133|49=DTL|52=20230601-19:55:00.951|56=OPS_CANDIDATE_7_7595|11=1685649288660|17=144958|30=NSDQ|31=240.63|32=79|37=102200|39=1|54=5|55=MSFT|150=1|10=081|
20230601-19:55:00.978920000 : 8=FIX.4.2|9=154|35=8|34=134|49=DTL|52=20230601-19:55:00.952|56=OPS_CANDIDATE_7_7595|11=1685649288661|17=144959|30=NSDQ|31=151.53|32=694|37=102201|39=2|54=1|55=AAPL|150=2|10=108|
20230601-19:55:00.978973000 : 8=FIX.4.2|9=153|35=8|34=135|49=DTL|52=20230601-19:55:00.952|56=OPS_CANDIDATE_7_7595|11=1685649288664|17=144960|30=NSDQ|31=150.55|32=45|37=102204|39=1|54=1|55=AAPL|150=1|10=047|
20230601-19:55:00.979020000 : 8=FIX.4.2|9=152|35=8|34=136|49=DTL|52=20230601-19:55:00.952|56=OPS_CANDIDATE_7_7595|11=1685649288665|17=144961|30=NSDQ|31=30.51|32=408|37=102205|39=1|54=1|55=BAC|150=1|10=214|
20230601-19:55:00.979070000 : 8=FIX.4.2|9=152|35=8|34=137|49=DTL|52=20230601-19:55:00.952|56=OPS_CANDIDATE_7_7595|11=1685649288666|17=144962|30=NSDQ|31=30.22|32=237|37=102206|39=2|54=2|55=BAC|150=2|10=219|
20230601-19:55:00.979119000 : 8=FIX.4.2|9=152|35=8|34=138|49=DTL|52=20230601-19:55:00.952|56=OPS_CANDIDATE_7_7595|11=1685649288667|17=144963|30=NSDQ|31=151.87|32=7|37=102207|39=1|54=1|55=AAPL|150=1|10=014|
20230601-19:55:00.979169000 : 8=FIX.4.2|9=150|35=8|34=139|49=DTL|52=20230601-19:55:00.952|56=OPS_CANDIDATE_7_7595|11=1685649288668|17=144964|30=NSDQ|31=33.2|32=22|37=102208|39=1|54=5|55=BAC|150=1|10=123|
20230601-19:55:00.979217000 : 8=FIX.4.2|9=154|35=8|34=140|49=DTL|52=20230601-19:55:00.952|56=OPS_CANDIDATE_7_7595|11=1685649288670|17=144965|30=NSDQ|31=151.26|32=213|37=102210|39=1|54=2|55=AAPL|150=1|10=088|
20230601-19:55:01.045329000 : 8=FIX.4.2|9=150|35=8|34=141|49=DTL|52=20230601-19:55:00.952|56=OPS_CANDIDATE_7_7595|11=1685649288672|17=144966|30=NSDQ|31=32.75|32=2|37=102211|39=1|54=2|55=BAC|150=1|10=111|
20230601-19:55:01.045506000 : 8=FIX.4.2|9=153|35=8|34=142|49=DTL|52=20230601-19:55:00.952|56=OPS_CANDIDATE_7_7595|11=1685649288673|17=144967|30=NSDQ|31=237.5|32=873|37=102212|39=2|54=2|55=MSFT|150=2|10=092|
20230601-19:55:01.045555000 : 8=FIX.4.2|9=154|35=8|34=143|49=DTL|52=20230601-19:55:00.952|56=OPS_CANDIDATE_7_7595|11=1685649288674|17=144968|30=NSDQ|31=238.28|32=336|37=102213|39=1|54=5|55=MSFT|150=1|10=146|
20230601-19:55:01.045601000 : 8=FIX.4.2|9=141|35=8|34=144|49=DTL|52=20230601-19:55:00.953|56=OPS_CANDIDATE_7_7595|11=1685649288675|37=102214|38=367|39=0|40=2|44=247.54|54=2|55=MSFT|150=0|10=177|
20230601-19:55:01.045646000 : 8=FIX.4.2|9=135|35=9|34=145|49=DTL|52=20230601-19:55:01.008|56=OPS_CANDIDATE_7_7595|11=1685649300965|37=NONE|39=8|41=1685649288638|58=Unknown order id|10=026|
20230601-19:55:01.150289000 : 8=FIX.4.2|9=139|35=D|34=60|49=OPS_CANDIDATE_7_7595|52=20230601-19:55:01.150|56=DTL|60=20230601-19:55:01.150|11=1685649288676|21=1|38=739|40=1|54=2|55=AAPL|10=130|
20230601-19:55:01.216528000 : 8=FIX.4.2|9=136|35=8|34=146|49=DTL|52=20230601-19:55:01.191|56=OPS_CANDIDATE_7_7595|11=1685649288676|37=102215|38=739|39=0|40=1|44=0|54=2|55=AAPL|150=0|10=150|
20230601-19:55:01.305921000 : 8=FIX.4.2|9=146|35=F|34=61|49=OPS_CANDIDATE_7_7595|52=20230601-19:55:01.305|56=DTL|60=20230601-19:55:01.305|11=1685649301305|38=853|41=1685649288652|54=5|55=AAPL|10=034|
20230601-19:55:01.345478000 : 8=FIX.4.2|9=147|35=D|34=62|49=OPS_CANDIDATE_7_7595|52=20230601-19:55:01.345|56=DTL|60=20230601-19:55:01.345|11=1685649288677|21=1|38=275|40=2|44=35.67|54=2|55=BAC|10=221|
20230601-19:55:01.371510000 : 8=FIX.4.2|9=135|35=9|34=147|49=DTL|52=20230601-19:55:01.346|56=OPS_CANDIDATE_7_7595|11=1685649301305|37=NONE|39=8|41=1685649288652|58=Unknown order id|10=018|
20230601-19:55:01.434054000 : 8=FIX.4.2|9=146|35=F|34=63|49=OPS_CANDIDATE_7_7595|52=20230601-19:55:01.433|56=DTL|60=20230601-19:55:01.433|11=1685649301433|38=146|41=1685649288645|54=5|55=AAPL|10=039|
20230601-19:55:01.437675000 : 8=FIX.4.2|9=139|35=8|34=148|49=DTL|52=20230601-19:55:01.411|56=OPS_CANDIDATE_7_7595|11=1685649288677|37=102216|38=275|39=0|40=2|44=35.67|54=2|55=BAC|150=0|10=015|
20230601-19:55:01.504332000 : 8=FIX.4.2|9=135|35=9|34=149|49=DTL|52=20230601-19:55:01.478|56=OPS_CANDIDATE_7_7595|11=1685649301433|37=NONE|39=8|41=1685649288645|58=Unknown order id|10=030|
20230601-19:55:01.573696000 : 8=FIX.4.2|9=145|35=F|34=64|49=OPS_CANDIDATE_7_7595|52=20230601-19:55:01.573|56=DTL|60=20230601-19:55:01.573|11=1685649301573|38=66|41=1685649288634|54=5|55=MSFT|10=033|
20230601-19:55:01.639975000 : 8=FIX.4.2|9=135|35=9|34=150|49=DTL|52=20230601-19:55:01.614|56=OPS_CANDIDATE_7_7595|11=1685649301573|37=NONE|39=8|41=1685649288634|58=Unknown order id|10=017|
20230601-19:55:01.640305000 : 8=FIX.4.2|9=149|35=D|34=65|49=OPS_CANDIDATE_7_7595|52=20230601-19:55:01.640|56=DTL|60=20230601-19:55:01.640|11=1685649288678|21=1|38=738|40=2|44=173.52|54=2|55=AAPL|10=104|
20230601-19:55:01.706278000 : 8=FIX.4.2|9=107|35=8|34=151|49=DTL|52=20230601-19:55:01.680|56=OPS_CANDIDATE_7_7595|11=1685649288678|39=8|58=Unlucky|150=8|10=212|
20230601-19:55:01.761908000 : 8=FIX.4.2|9=145|35=F|34=66|49=OPS_CANDIDATE_7_7595|52=20230601-19:55:01.761|56=DTL|60=20230601-19:55:01.761|11=1685649301761|38=390|41=1685649288655|54=1|55=BAC|10=219|
20230601-19:55:01.828625000 : 8=FIX.4.2|9=135|35=9|34=152|49=DTL|52=20230601-19:55:01.802|56=OPS_CANDIDATE_7_7595|11=1685649301761|37=NONE|39=8|41=1685649288655|58=Unknown order id|10=020|
20230601-19:55:01.861455000 : 8=FIX.4.2|9=138|35=D|34=67|49=OPS_CANDIDATE_7_7595|52=20230601-19:55:01.861|56=DTL|60=20230601-19:55:01.861|11=1685649288679|21=1|38=344|40=1|54=5|55=BAC|10=064|
20230601-19:55:01.927805000 : 8=FIX.4.2|9=135|35=8|34=153|49=DTL|52=20230601-19:55:01.902|56=OPS_CANDIDATE_7_7595|11=1685649288679|37=102218|38=344|39=0|40=1|44=0|54=5|55=BAC|150=0|10=060|
20230601-19:55:02.076314000 : 8=FIX.4.2|9=153|35=8|34=154|49=DTL|52=20230601-19:55:02.050|56=OPS_CANDIDATE_7_7595|11=1685649288647|17=144969|30=NSDQ|31=242.73|32=16|37=102188|39=2|54=1|55=MSFT|150=2|10=090|
20230601-19:55:02.078023000 : 8=FIX.4.2|9=153|35=8|34=155|49=DTL|52=20230601-19:55:02.051|56=OPS_CANDIDATE_7_7595|11=1685649288660|17=144970|30=NSDQ|31=239.99|32=11|37=102200|39=1|54=5|55=MSFT|150=1|10=075|
20230601-19:55:02.078208000 : 8=FIX.4.2|9=154|35=8|34=156|49=DTL|52=20230601-19:55:02.051|56=OPS_CANDIDATE_7_7595|11=1685649288664|17=144971|30=NSDQ|31=151.09|32=167|37=102204|39=2|54=1|55=AAPL|150=2|10=100|
20230601-19:55:02.078307000 : 8=FIX.4.2|9=151|35=8|34=157|49=DTL|52=20230601-19:55:02.051|56=OPS_CANDIDATE_7_7595|11=1685649288665|17=144972|30=NSDQ|31=30.43|32=75|37=102205|39=2|54=1|55=BAC|150=2|10=165|
20230601-19:55:02.078390000 : 8=FIX.4.2|9=152|35=8|34=158|49=DTL|52=20230601-19:55:02.051|56=OPS_CANDIDATE_7_7595|11=1685649288667|17=144973|30=NSDQ|31=152.97|32=2|37=102207|39=2|54=1|55=AAPL|150=2|10=008|
20230601-19:55:02.078478000 : 8=FIX.4.2|9=152|35=8|34=159|49=DTL|52=20230601-19:55:02.051|56=OPS_CANDIDATE_7_7595|11=1685649288668|17=144974|30=NSDQ|31=33.24|32=141|37=102208|39=1|54=5|55=BAC|150=1|10=222|
20230601-19:55:02.078557000 : 8=FIX.4.2|9=154|35=8|34=160|49=DTL|52=20230601-19:55:02.051|56=OPS_CANDIDATE_7_7595|11=1685649288670|17=144975|30=NSDQ|31=152.44|32=520|37=102210|39=2|54=2|55=AAPL|150=2|10=087|
20230601-19:55:02.078653000 : 8=FIX.4.2|9=152|35=8|34=161|49=DTL|52=20230601-19:55:02.051|56=OPS_CANDIDATE_7_7595|11=1685649288672|17=144976|30=NSDQ|31=30.13|32=286|37=102211|39=2|54=2|55=BAC|150=2|10=210|
20230601-19:55:02.078737000 : 8=FIX.4.2|9=154|35=8|34=162|49=DTL|52=20230601-19:55:02.051|56=OPS_CANDIDATE_7_7595|11=1685649288674|17=144977|30=NSDQ|31=239.37|32=585|37=102213|39=2|54=5|55=MSFT|150=2|10=148|
20230601-19:55:02.118205000 : 8=FIX.4.2|9=146|35=F|34=68|49=OPS_CANDIDATE_7_7595|52=20230601-19:55:02.118|56=DTL|60=20230601-19:55:02.117|11=1685649302118|38=694|41=1685649288632|54=2|55=MSFT|10=075|
20230601-19:55:02.142322000 : 8=FIX.4.2|9=152|35=8|34=163|49=DTL|52=20230601-19:55:02.051|56=OPS_CANDIDATE_7_7595|11=1685649288675|17=144978|30=NSDQ|31=237.86|32=3|37=102214|39=1|54=2|55=MSFT|150=1|10=036|
20230601-19:55:02.142545000 : 8=FIX.4.2|9=154|35=8|34=164|49=DTL|52=20230601-19:55:02.051|56=OPS_CANDIDATE_7_7595|11=1685649288676|17=144979|30=NSDQ|31=152.82|32=739|37=102215|39=2|54=2|55=AAPL|150=2|10=120|
20230601-19:55:02.142630000 : 8=FIX.4.2|9=152|35=8|34=165|49=DTL|52=20230601-19:55:02.051|56=OPS_CANDIDATE_7_7595|11=1685649288677|17=144980|30=NSDQ|31=32.95|32=275|37=102216|39=2|54=2|55=BAC|150=2|10=229|
20230601-19:55:02.142699000 : 8=FIX.4.2|9=152|35=8|34=166|49=DTL|52=20230601-19:55:02.052|56=OPS_CANDIDATE_7_7595|11=1685649288679|17=144981|30=NSDQ|31=33.52|32=344|37=102218|39=2|54=5|55=BAC|150=2|10=230|
20230601-19:55:02.167763000 : 8=FIX.4.2|9=149|35=D|34=69|49=OPS_CANDIDATE_7_7595|52=20230601-19:55:02.167|56=DTL|60=20230601-19:55:02.167|11=1685649288680|21=1|38=774|40=2|44=154.78|54=2|55=AAPL|10=118|
20230601-19:55:02.208245000 : 8=FIX.4.2|9=135|35=9|34=167|49=DTL|52=20230601-19:55:02.159|56=OPS_CANDIDATE_7_7595|11=1685649302118|37=NONE|39=8|41=1685649288632|58=Unknown order id|10=024|
20230601-19:55:02.274849000 : 8=FIX.4.2|9=141|35=8|34=168|49=DTL|52=20230601-19:55:02.249|56=OPS_CANDIDATE_7_7595|11=1685649288680|37=102219|38=774|39=0|40=2|44=154.78|54=2|55=AAPL|150=0|10=161|
20230601-19:55:02.379450000 : 8=FIX.4.2|9=147|35=D|34=70|49=OPS_CANDIDATE_7_7595|52=20230601-19:55:02.379|56=DTL|60=20230601-19:55:02.379|11=1685649288681|21=1|38=834|40=2|44=32.96|54=5|55=BAC|10=234|
20230601-19:55:02.442986000 : 8=FIX.4.2|9=146|35=F|34=71|49=OPS_CANDIDATE_7_7595|52=20230601-19:55:02.442|56=DTL|60=20230601-19:55:02.442|11=1685649302442|38=921|41=1685649288674|54=5|55=MSFT|10=072|
20230601-19:55:02.446118000 : 8=FIX.4.2|9=139|35=8|34=169|49=DTL|52=20230601-19:55:02.420|56=OPS_CANDIDATE_7_7595|11=1685649288681|37=102220|38=834|39=0|40=2|44=32.96|54=5|55=BAC|150=0|10=012|
20230601-19:55:02.512637000 : 8=FIX.4.2|9=135|35=9|34=170|49=DTL|52=20230601-19:55:02.487|56=OPS_CANDIDATE_7_7595|11=1685649302442|37=NONE|39=8|41=1685649288674|58=Unknown order id|10=028|
20230601-19:55:02.538507000 : 8=FIX.4.2|9=139|35=D|34=72|49=OPS_CANDIDATE_7_7595|52=20230601-19:55:02.538|56=DTL|60=20230601-19:55:02.538|11=1685649288682|21=1|38=260|40=1|54=5|55=AAPL|10=144|
20230601-19:55:02.605158000 : 8=FIX.4.2|9=136|35=8|34=171|49=DTL|52=20230601-19:55:02.579|56=OPS_CANDIDATE_7_7595|11=1685649288682|37=102221|38=260|39=0|40=1|44=0|54=5|55=AAPL|150=0|10=145|
20230601-19:55:02.734253000 : 8=FIX.4.2|9=146|35=F|34=73|49=OPS_CANDIDATE_7_7595|52=20230601-19:55:02.734|56=DTL|60=20230601-19:55:02.733|11=1685649302734|38=426|41=1685649288633|54=5|55=MSFT|10=080|
20230601-19:55:02.800488000 : 8=FIX.4.2|9=135|35=9|34=172|49=DTL|52=20230601-19:55:02.775|56=OPS_CANDIDATE_7_7595|11=1685649302734|37=NONE|39=8|41=1685649288633|58=Unknown order id|10=029|
20230601-19:55:02.807908000 : 8=FIX.4.2|9=138|35=D|34=74|49=OPS_CANDIDATE_7_7595|52=20230601-19:55:02.807|56=DTL|60=20230601-19:55:02.807|11=1685649288683|21=1|38=256|40=1|54=2|55=BAC|10=058|
20230601-19:55:02.873551000 : 8=FIX.4.2|9=135|35=8|34=173|49=DTL|52=20230601-19:55:02.848|56=OPS_CANDIDATE_7_7595|11=1685649288683|37=102222|38=256|39=0|40=1|44=0|54=2|55=BAC|150=0|10=061|
20230601-19:55:02.945663000 : 8=FIX.4.2|9=145|35=F|34=75|49=OPS_CANDIDATE_7_7595|52=20230601-19:55:02.945|56=DTL|60=20230601-19:55:02.945|11=1685649302945|38=983|41=1685649288626|54=1|55=BAC|10=240|
20230601-19:55:03.012180000 : 8=FIX.4.2|9=135|35=9|34=174|49=DTL|52=20230601-19:55:02.986|56=OPS_CANDIDATE_7_7595|11=1685649302945|37=NONE|39=8|41=1685649288626|58=Unknown order id|10=041|
20230601-19:55:03.048307000 : 8=FIX.4.2|9=138|35=D|34=76|49=OPS_CANDIDATE_7_7595|52=20230601-19:55:03.048|56=DTL|60=20230601-19:55:03.048|11=1685649288684|21=1|38=720|40=1|54=5|55=BAC|10=056|
20230601-19:55:03.174034000 : 8=FIX.4.2|9=153|35=8|34=175|49=DTL|52=20230601-19:55:03.147|56=OPS_CANDIDATE_7_7595|11=1685649288660|17=144982|30=NSDQ|31=240.76|32=23|37=102200|39=2|54=5|55=MSFT|150=2|10=079|
20230601-19:55:03.255059000 : 8=FIX.4.2|9=146|35=F|34=77|49=OPS_CANDIDATE_7_7595|52=20230601-19:55:03.254|56=DTL|60=20230601-19:55:03.254|11=1685649303254|38=739|41=1685649288676|54=2|55=AAPL|10=062|
20230601-19:55:03.283687000 : 8=FIX.4.2|9=150|35=8|34=176|49=DTL|52=20230601-19:55:03.147|56=OPS_CANDIDATE_7_7595|11=1685649288668|17=144983|30=NSDQ|31=34.74|32=3|37=102208|39=2|54=5|55=BAC|150=2|10=135|
20230601-19:55:03.283888000 : 8=FIX.4.2|9=154|35=8|34=177|49=DTL|52=20230601-19:55:03.148|56=OPS_CANDIDATE_7_7595|11=1685649288675|17=144984|30=NSDQ|31=238.61|32=364|37=102214|39=2|54=2|55=MSFT|150=2|10=150|
20230601-19:55:03.283941000 : 8=FIX.4.2|9=154|35=8|34=178|49=DTL|52=20230601-19:55:03.148|56=OPS_CANDIDATE_7_7595|11=1685649288680|17=144985|30=NSDQ|31=152.85|32=651|37=102219|39=1|54=2|55=AAPL|150=1|10=123|
20230601-19:55:03.283990000 : 8=FIX.4.2|9=151|35=8|34=179|49=DTL|52=20230601-19:55:03.148|56=OPS_CANDIDATE_7_7595|11=1685649288681|17=144986|30=NSDQ|31=33.5|32=480|37=102220|39=1|54=5|55=BAC|150=1|10=180|
20230601-19:55:03.284038000 : 8=FIX.4.2|9=154|35=8|34=180|49=DTL|52=20230601-19:55:03.148|56=OPS_CANDIDATE_7_7595|11=1685649288682|17=144987|30=NSDQ|31=152.67|32=109|37=102221|39=1|54=5|55=AAPL|150=1|10=114|
20230601-19:55:03.284085000 : 8=FIX.4.2|9=151|35=8|34=181|49=DTL|52=20230601-19:55:03.148|56=OPS_CANDIDATE_7_7595|11=1685649288683|17=144988|30=NSDQ|31=31.64|32=45|37=102222|39=1|54=2|55=BAC|150=1|10=176|
20230601-19:55:03.284131000 : 8=FIX.4.2|9=135|35=8|34=182|49=DTL|52=20230601-19:55:03.148|56=OPS_CANDIDATE_7_7595|11=1685649288684|37=102223|38=720|39=0|40=1|44=0|54=5|55=BAC|150=0|10=056|
20230601-19:55:03.305629000 : 8=FIX.4.2|9=139|35=D|34=78|49=OPS_CANDIDATE_7_7595|52=20230601-19:55:03.305|56=DTL|60=20230601-19:55:03.305|11=1685649288685|21=1|38=203|40=1|54=5|55=MSFT|10=164|
20230601-19:55:03.349137000 : 8=FIX.4.2|9=135|35=9|34=183|49=DTL|52=20230601-19:55:03.295|56=OPS_CANDIDATE_7_7595|11=1685649303254|37=NONE|39=8|41=1685649288676|58=Unknown order id|10=034|
20230601-19:55:03.438246000 : 8=FIX.4.2|9=145|35=F|34=79|49=OPS_CANDIDATE_7_7595|52=20230601-19:55:03.438|56=DTL|60=20230601-19:55:03.438|11=1685649303438|38=16|41=1685649288667|54=1|55=AAPL|10=014|
20230601-19:55:03.455195000 : 8=FIX.4.2|9=136|35=8|34=184|49=DTL|52=20230601-19:55:03.361|56=OPS_CANDIDATE_7_7595|11=1685649288685|37=102224|38=203|39=0|40=1|44=0|54=5|55=MSFT|150=0|10=170|
20230601-19:55:03.520755000 : 8=FIX.4.2|9=135|35=9|34=185|49=DTL|52=20230601-19:55:03.479|56=OPS_CANDIDATE_7_7595|11=1685649303438|37=NONE|39=8|41=1685649288667|58=Unknown order id|10=044|
20230601-19:55:03.613974000 : 8=FIX.4.2|9=145|35=F|34=80|49=OPS_CANDIDATE_7_7595|52=20230601-19:55:03.613|56=DTL|60=20230601-19:55:03.613|11=1685649303613|38=694|41=1685649288631|54=2|55=BAC|10=211|
20230601-19:55:03.671582000 : 8=FIX.4.2|9=139|35=D|34=81|49=OPS_CANDIDATE_7_7595|52=20230601-19:55:03.671|56=DTL|60=20230601-19:55:03.671|11=1685649288687|21=1|38=139|40=1|54=5|55=AAPL|10=152|
20230601-19:55:03.680671000 : 8=FIX.4.2|9=135|35=9|34=186|49=DTL|52=20230601-19:55:03.654|56=OPS_CANDIDATE_7_7595|11=1685649303613|37=NONE|39=8|41=1685649288631|58=Unknown order id|10=026|
20230601-19:55:03.747071000 : 8=FIX.4.2|9=136|35=8|34=187|49=DTL|52=20230601-19:55:03.721|56=OPS_CANDIDATE_7_7595|11=1685649288687|37=102225|38=139|39=0|40=1|44=0|54=5|55=AAPL|150=0|10=156|
20230601-19:55:03.782127000 : 8=FIX.4.2|9=145|35=F|34=82|49=OPS_CANDIDATE_7_7595|52=20230601-19:55:03.782|56=DTL|60=20230601-19:55:03.781|11=1685649303781|38=288|41=1685649288672|54=2|55=BAC|10=236|
20230601-19:55:03.848963000 : 8=FIX.4.2|9=135|35=9|34=188|49=DTL|52=20230601-19:55:03.823|56=OPS_CANDIDATE_7_7595|11=1685649303781|37=NONE|39=8|41=1685649288672|58=Unknown order id|10=037|
20230601-19:55:03.899719000 : 8=FIX.4.2|9=139|35=D|34=83|49=OPS_CANDIDATE_7_7595|52=20230601-19:55:03.899|56=DTL|60=20230601-19:55:03.899|11=1685649288688|21=1|38=454|40=1|54=5|55=AAPL|10=179|
20230601-19:55:03.965778000 : 8=FIX.4.2|9=136|35=8|34=189|49=DTL|52=20230601-19:55:03.940|56=OPS_CANDIDATE_7_7595|11=1685649288688|37=102226|38=454|39=0|40=1|44=0|54=5|55=AAPL|150=0|10=163|
20230601-19:55:04.012204000 : 8=FIX.4.2|9=145|35=F|34=84|49=OPS_CANDIDATE_7_7595|52=20230601-19:55:04.012|56=DTL|60=20230601-19:55:04.011|11=1685649304012|38=81|41=1685649288654|54=2|55=MSFT|10=003|
20230601-19:55:04.077911000 : 8=FIX.4.2|9=135|35=9|34=190|49=DTL|52=20230601-19:55:04.052|56=OPS_CANDIDATE_7_7595|11=1685649304012|37=NONE|39=8|41=1685649288654|58=Unknown order id|10=013|
20230601-19:55:04.088731000 : 8=FIX.4.2|9=149|35=D|34=85|49=OPS_CANDIDATE_7_7595|52=20230601-19:55:04.088|56=DTL|60=20230601-19:55:04.088|11=1685649288689|21=1|38=145|40=2|44=143.03|54=1|55=AAPL|10=110|
20230601-19:55:04.155649000 : 8=FIX.4.2|9=141|35=8|34=191|49=DTL|52=20230601-19:55:04.130|56=OPS_CANDIDATE_7_7595|11=1685649288689|37=102227|38=145|39=0|40=2|44=143.03|54=1|55=AAPL|150=0|10=133|
20230601-19:55:04.257376000 : 8=FIX.4.2|9=145|35=F|34=86|49=OPS_CANDIDATE_7_7595|52=20230601-19:55:04.257|56=DTL|60=20230601-19:55:04.257|11=1685649304257|38=818|41=1685649288662|54=2|55=BAC|10=234|
20230601-19:55:04.270944000 : 8=FIX.4.2|9=153|35=8|34=192|49=DTL|52=20230601-19:55:04.245|56=OPS_CANDIDATE_7_7595|11=1685649288680|17=144989|30=NSDQ|31=150.77|32=21|37=102219|39=1|54=2|55=AAPL|150=1|10=063|
20230601-19:55:04.301946000 : 8=FIX.4.2|9=149|35=D|34=87|49=OPS_CANDIDATE_7_7595|52=20230601-19:55:04.301|56=DTL|60=20230601-19:55:04.301|11=1685649288690|21=1|38=122|40=2|44=328.52|54=5|55=MSFT|10=116|
20230601-19:55:04.323237000 : 8=FIX.4.2|9=151|35=8|34=193|49=DTL|52=20230601-19:55:04.246|56=OPS_CANDIDATE_7_7595|11=1685649288681|17=144990|30=NSDQ|31=30.87|32=79|37=102220|39=1|54=5|55=BAC|150=1|10=182|
20230601-19:55:04.323444000 : 8=FIX.4.2|9=154|35=8|34=194|49=DTL|52=20230601-19:55:04.246|56=OPS_CANDIDATE_7_7595|11=1685649288682|17=144991|30=NSDQ|31=151.91|32=151|37=102221|39=2|54=5|55=AAPL|150=2|10=109|
20230601-19:55:04.323522000 : 8=FIX.4.2|9=152|35=8|34=195|49=DTL|52=20230601-19:55:04.246|56=OPS_CANDIDATE_7_7595|11=1685649288683|17=144992|30=NSDQ|31=34.05|32=211|37=102222|39=2|54=2|55=BAC|150=2|10=220|
20230601-19:55:04.323599000 : 8=FIX.4.2|9=152|35=8|34=196|49=DTL|52=20230601-19:55:04.246|56=OPS_CANDIDATE_7_7595|11=1685649288684|17=144993|30=NSDQ|31=32.68|32=331|37=102223|39=1|54=5|55=BAC|150=1|10=235|
20230601-19:55:04.323684000 : 8=FIX.4.2|9=154|35=8|34=197|49=DTL|52=20230601-19:55:04.246|56=OPS_CANDIDATE_7_7595|11=1685649288685|17=144994|30=NSDQ|31=240.88|32=203|37=102224|39=2|54=5|55=MSFT|150=2|10=152|
20230601-19:55:04.323770000 : 8=FIX.4.2|9=152|35=8|34=198|49=DTL|52=20230601-19:55:04.246|56=OPS_CANDIDATE_7_7595|11=1685649288687|17=144995|30=NSDQ|31=150.53|32=9|37=102225|39=1|54=5|55=AAPL|150=1|10=025|
20230601-19:55:04.323852000 : 8=FIX.4.2|9=154|35=8|34=199|49=DTL|52=20230601-19:55:04.246|56=OPS_CANDIDATE_7_7595|11=1685649288688|17=144996|30=NSDQ|31=151.13|32=156|37=102226|39=1|54=5|55=AAPL|150=1|10=127|
20230601-19:55:04.323940000 : 8=FIX.4.2|9=154|35=8|34=200|49=DTL|52=20230601-19:55:04.246|56=OPS_CANDIDATE_7_7595|11=1685649288689|17=144997|30=NSDQ|31=150.54|32=145|37=102227|39=2|54=1|55=AAPL|150=2|10=113|
20230601-19:55:04.336325000 : 8=FIX.4.2|9=135|35=9|34=201|49=DTL|52=20230601-19:55:04.298|56=OPS_CANDIDATE_7_7595|11=1685649304257|37=NONE|39=8|41=1685649288662|58=Unknown order id|10=028|
20230601-19:55:04.443395000 : 8=FIX.4.2|9=141|35=8|34=202|49=DTL|52=20230601-19:55:04.364|56=OPS_CANDIDATE_7_7595|11=1685649288690|37=102228|38=122|39=0|40=2|44=328.52|54=5|55=MSFT|150=0|10=164|
20230601-19:55:04.461610000 : 8=FIX.4.2|9=145|35=F|34=88|49=OPS_CANDIDATE_7_7595|52=20230601-19:55:04.461|56=DTL|60=20230601-19:55:04.461|11=1685649304461|38=486|41=1685649288641|54=5|55=BAC|10=228|
20230601-19:55:04.527501000 : 8=FIX.4.2|9=135|35=9|34=203|49=DTL|52=20230601-19:55:04.502|56=OPS_CANDIDATE_7_7595|11=1685649304461|37=NONE|39=8|41=1685649288641|58=Unknown order id|10=012|
20230601-19:55:04.583265000 : 8=FIX.4.2|9=147|35=D|34=89|49=OPS_CANDIDATE_7_7595|52=20230601-19:55:04.583|56=DTL|60=20230601-19:55:04.583|11=1685649288691|21=1|38=165|40=2|44=25.25|54=2|55=BAC|10=231|
20230601-19:55:04.649617000 : 8=FIX.4.2|9=139|35=8|34=204|49=DTL|52=20230601-19:55:04.624|56=OPS_CANDIDATE_7_7595|11=1685649288691|37=102229|38=165|39=0|40=2|44=25.25|54=2|55=BAC|150=0|10=008|
20230601-19:55:04.737870000 : 8=FIX.4.2|9=146|35=D|34=90|49=OPS_CANDIDATE_7_7595|52=20230601-19:55:04.737|56=DTL|60=20230601-19:55:04.737|11=1685649288692|21=1|38=638|40=2|44=36.7|54=5|55=BAC|10=187|
20230601-19:55:04.803459000 : 8=FIX.4.2|9=138|35=8|34=205|49=DTL|52=20230601-19:55:04.778|56=OPS_CANDIDATE_7_7595|11=1685649288692|37=102230|38=638|39=0|40=2|44=36.7|54=5|55=BAC|150=0|10=229|
20230601-19:55:04.826344000 : 8=FIX.4.2|9=145|35=F|34=91|49=OPS_CANDIDATE_7_7595|52=20230601-19:55:04.826|56=DTL|60=20230601-19:55:04.826|11=1685649304826|38=618|41=1685649288643|54=1|55=BAC|10=232|
20230601-19:55:04.891889000 : 8=FIX.4.2|9=135|35=9|34=206|49=DTL|52=20230601-19:55:04.866|56=OPS_CANDIDATE_7_7595|11=1685649304826|37=NONE|39=8|41=1685649288643|58=Unknown order id|10=035|
20230601-19:55:04.958063000 : 8=FIX.4.2|9=139|35=D|34=92|49=OPS_CANDIDATE_7_7595|52=20230601-19:55:04.957|56=DTL|60=20230601-19:55:04.957|11=1685649288693|21=1|38=191|40=1|54=2|55=AAPL|10=162|
20230601-19:55:05.023702000 : 8=FIX.4.2|9=136|35=8|34=207|49=DTL|52=20230601-19:55:04.998|56=OPS_CANDIDATE_7_7595|11=1685649288693|37=102231|38=191|39=0|40=1|44=0|54=2|55=AAPL|150=0|10=155|
20230601-19:55:05.198845000 : 8=FIX.4.2|9=145|35=F|34=93|49=OPS_CANDIDATE_7_7595|52=20230601-19:55:05.198|56=DTL|60=20230601-19:55:05.198|11=1685649305198|38=881|41=1685649288666|54=2|55=BAC|10=251|
20230601-19:55:05.264960000 : 8=FIX.4.2|9=135|35=9|34=208|49=DTL|52=20230601-19:55:05.239|56=OPS_CANDIDATE_7_7595|11=1685649305198|37=NONE|39=8|41=1685649288666|58=Unknown order id|10=040|
20230601-19:55:05.275440000 : 8=FIX.4.2|9=139|35=D|34=94|49=OPS_CANDIDATE_7_7595|52=20230601-19:55:05.275|56=DTL|60=20230601-19:55:05.275|11=1685649288694|21=1|38=164|40=1|54=2|55=AAPL|10=153|
20230601-19:55:05.421402000 : 8=FIX.4.2|9=154|35=8|34=209|49=DTL|52=20230601-19:55:05.396|56=OPS_CANDIDATE_7_7595|11=1685649288680|17=144998|30=NSDQ|31=150.65|32=102|37=102219|39=2|54=2|55=AAPL|150=2|10=118|
20230601-19:55:05.422832000 : 8=FIX.4.2|9=152|35=8|34=210|49=DTL|52=20230601-19:55:05.396|56=OPS_CANDIDATE_7_7595|11=1685649288681|17=144999|30=NSDQ|31=31.53|32=201|37=102220|39=1|54=5|55=BAC|150=1|10=218|
20230601-19:55:05.422913000 : 8=FIX.4.2|9=152|35=8|34=211|49=DTL|52=20230601-19:55:05.396|56=OPS_CANDIDATE_7_7595|11=1685649288684|17=145000|30=NSDQ|31=34.34|32=294|37=102223|39=1|54=5|55=BAC|150=1|10=213|
20230601-19:55:05.422957000 : 8=FIX.4.2|9=153|35=8|34=212|49=DTL|52=20230601-19:55:05.396|56=OPS_CANDIDATE_7_7595|11=1685649288687|17=145001|30=NSDQ|31=150.64|32=11|37=102225|39=1|54=5|55=AAPL|150=1|10=042|
20230601-19:55:05.422998000 : 8=FIX.4.2|9=153|35=8|34=213|49=DTL|52=20230601-19:55:05.396|56=OPS_CANDIDATE_7_7595|11=1685649288688|17=145002|30=NSDQ|31=151.46|32=24|37=102226|39=1|54=5|55=AAPL|150=1|10=051|
20230601-19:55:05.423039000 : 8=FIX.4.2|9=152|35=8|34=214|49=DTL|52=20230601-19:55:05.396|56=OPS_CANDIDATE_7_7595|11=1685649288690|17=145003|30=NSDQ|31=238.41|32=3|37=102228|39=1|54=5|55=MSFT|150=1|10=025|
20230601-19:55:05.423079000 : 8=FIX.4.2|9=152|35=8|34=215|49=DTL|52=20230601-19:55:05.396|56=OPS_CANDIDATE_7_7595|11=1685649288691|17=145004|30=NSDQ|31=33.09|32=104|37=102229|39=1|54=2|55=BAC|150=1|10=213|
20230601-19:55:05.423118000 : 8=FIX.4.2|9=152|35=8|34=216|49=DTL|52=20230601-19:55:05.396|56=OPS_CANDIDATE_7_7595|11=1685649288692|17=145005|30=NSDQ|31=31.89|32=638|37=102230|39=2|54=5|55=BAC|150=2|10=231|
20230601-19:55:05.423158000 : 8=FIX.4.2|9=154|35=8|34=217|49=DTL|52=20230601-19:55:05.397|56=OPS_CANDIDATE_7_7595|11=1685649288693|17=145006|30=NSDQ|31=150.43|32=191|37=102231|39=2|54=2|55=AAPL|150=2|10=101|
20230601-19:55:05.486179000 : 8=FIX.4.2|9=145|35=F|34=95|49=OPS_CANDIDATE_7_7595|52=20230601-19:55:05.486|56=DTL|60=20230601-19:55:05.485|11=1685649305485|38=68|41=1685649288659|54=2|55=AAPL|10=034|
20230601-19:55:05.488083000 : 8=FIX.4.2|9=136|35=8|34=218|49=DTL|52=20230601-19:55:05.397|56=OPS_CANDIDATE_7_7595|11=1685649288694|37=102232|38=164|39=0|40=1|44=0|54=2|55=AAPL|150=0|10=153|
20230601-19:55:05.492650000 : 8=FIX.4.2|9=147|35=D|34=96|49=OPS_CANDIDATE_7_7595|52=20230601-19:55:05.492|56=DTL|60=20230601-19:55:05.492|11=1685649288695|21=1|38=366|40=2|44=39.83|54=2|55=BAC|10=245|
20230601-19:55:05.595421000 : 8=FIX.4.2|9=135|35=9|34=219|49=DTL|52=20230601-19:55:05.526|56=OPS_CANDIDATE_7_7595|11=1685649305485|37=NONE|39=8|41=1685649288659|58=Unknown order id|10=042|
20230601-19:55:05.660683000 : 8=FIX.4.2|9=139|35=8|34=220|49=DTL|52=20230601-19:55:05.592|56=OPS_CANDIDATE_7_7595|11=1685649288695|37=102233|38=366|39=0|40=2|44=39.83|54=2|55=BAC|150=0|10=022|
20230601-19:55:05.673299000 : 8=FIX.4.2|9=149|35=D|34=97|49=OPS_CANDIDATE_7_7595|52=20230601-19:55:05.673|56=DTL|60=20230601-19:55:05.673|11=1685649288696|21=1|38=614|40=2|44=286.01|54=1|55=MSFT|10=148|
20230601-19:55:05.738877000 : 8=FIX.4.2|9=141|35=8|34=221|49=DTL|52=20230601-19:55:05.713|56=OPS_CANDIDATE_7_7595|11=1685649288696|37=102234|38=614|39=0|40=2|44=286.01|54=1|55=MSFT|150=0|10=166|
20230601-19:55:05.880051000 : 8=FIX.4.2|9=145|35=F|34=98|49=OPS_CANDIDATE_7_7595|52=20230601-19:55:05.879|56=DTL|60=20230601-19:55:05.879|11=1685649305879|38=170|41=1685649288622|54=2|55=BAC|10=001|
20230601-19:55:05.943574000 : 8=FIX.4.2|9=149|35=D|34=99|49=OPS_CANDIDATE_7_7595|52=20230601-19:55:05.943|56=DTL|60=20230601-19:55:05.943|11=1685649288697|21=1|38=755|40=2|44=344.16|54=1|55=MSFT|10=158|
20230601-19:55:05.946102000 : 8=FIX.4.2|9=135|35=9|34=222|49=DTL|52=20230601-19:55:05.920|56=OPS_CANDIDATE_7_7595|11=1685649305879|37=NONE|39=8|41=1685649288622|58=Unknown order id|10=031|
20230601-19:55:06.011133000 : 8=FIX.4.2|9=107|35=8|34=223|49=DTL|52=20230601-19:55:05.985|56=OPS_CANDIDATE_7_7595|11=1685649288697|39=8|58=Unlucky|150=8|10=225|
20230601-19:55:06.017056000 : 8=FIX.4.2|9=147|35=F|34=100|49=OPS_CANDIDATE_7_7595|52=20230601-19:55:06.016|56=DTL|60=20230601-19:55:06.016|11=1685649306016|38=926|41=1685649288658|54=2|55=MSFT|10=121|
20230601-19:55:06.083271000 : 8=FIX.4.2|9=135|35=9|34=224|49=DTL|52=20230601-19:55:06.058|56=OPS_CANDIDATE_7_7595|11=1685649306016|37=NONE|39=8|41=1685649288658|58=Unknown order id|10=029|
20230601-19:55:06.251831000 : 8=FIX.4.2|9=140|35=D|34=101|49=OPS_CANDIDATE_7_7595|52=20230601-19:55:06.251|56=DTL|60=20230601-19:55:06.251|11=1685649288698|21=1|38=172|40=1|54=5|55=AAPL|10=178|
20230601-19:55:06.295292000 : 8=FIX.4.2|9=147|35=F|34=102|49=OPS_CANDIDATE_7_7595|52=20230601-19:55:06.295|56=DTL|60=20230601-19:55:06.295|11=1685649306295|38=497|41=1685649288660|54=5|55=MSFT|10=149|
20230601-19:55:06.317712000 : 8=FIX.4.2|9=136|35=8|34=225|49=DTL|52=20230601-19:55:06.292|56=OPS_CANDIDATE_7_7595|11=1685649288698|37=102236|38=172|39=0|40=1|44=0|54=5|55=AAPL|150=0|10=156|
20230601-19:55:06.383174000 : 8=FIX.4.2|9=135|35=9|34=226|49=DTL|52=20230601-19:55:06.358|56=OPS_CANDIDATE_7_7595|11=1685649306295|37=NONE|39=8|41=1685649288660|58=Unknown order id|10=036|
20230601-19:55:06.517707000 : 8=FIX.4.2|9=150|35=8|34=227|49=DTL|52=20230601-19:55:06.492|56=OPS_CANDIDATE_7_7595|11=1685649288681|17=145007|30=NSDQ|31=34.52|32=6|37=102220|39=1|54=5|55=BAC|150=1|10=112|
20230601-19:55:06.518932000 : 8=FIX.4.2|9=151|35=8|34=228|49=DTL|52=20230601-19:55:06.492|56=OPS_CANDIDATE_7_7595|11=1685649288684|17=145008|30=NSDQ|31=30.83|32=51|37=102223|39=1|54=5|55=BAC|150=1|10=169|
20230601-19:55:06.519019000 : 8=FIX.4.2|9=153|35=8|34=229|49=DTL|52=20230601-19:55:06.493|56=OPS_CANDIDATE_7_7595|11=1685649288687|17=145009|30=NSDQ|31=152.28|32=79|37=102225|39=1|54=5|55=AAPL|150=1|10=073|
20230601-19:55:06.519069000 : 8=FIX.4.2|9=154|35=8|34=230|49=DTL|52=20230601-19:55:06.493|56=OPS_CANDIDATE_7_7595|11=1685649288688|17=145010|30=NSDQ|31=150.32|32=168|37=102226|39=1|54=5|55=AAPL|150=1|10=100|
20230601-19:55:06.519126000 : 8=FIX.4.2|9=152|35=8|34=231|49=DTL|52=20230601-19:55:06.493|56=OPS_CANDIDATE_7_7595|11=1685649288690|17=145011|30=NSDQ|31=238.28|32=3|37=102228|39=1|54=5|55=MSFT|150=1|10=027|
20230601-19:55:06.519162000 : 8=FIX.4.2|9=151|35=8|34=232|49=DTL|52=20230601-19:55:06.493|56=OPS_CANDIDATE_7_7595|11=1685649288691|17=145012|30=NSDQ|31=34.98|32=43|37=102229|39=1|54=2|55=BAC|150=1|10=172|
20230601-19:55:06.519199000 : 8=FIX.4.2|9=153|35=8|34=233|49=DTL|52=20230601-19:55:06.493|56=OPS_CANDIDATE_7_7595|11=1685649288694|17=145013|30=NSDQ|31=150.66|32=32|37=102232|39=1|54=2|55=AAPL|150=1|10=045|
20230601-19:55:06.519238000 : 8=FIX.4.2|9=152|35=8|34=234|49=DTL|52=20230601-19:55:06.493|56=OPS_CANDIDATE_7_7595|11=1685649288695|17=145014|30=NSDQ|31=30.27|32=366|37=102233|39=2|54=2|55=BAC|150=2|10=222|
20230601-19:55:06.519280000 : 8=FIX.4.2|9=154|35=8|34=235|49=DTL|52=20230601-19:55:06.493|56=OPS_CANDIDATE_7_7595|11=1685649288696|17=145015|30=NSDQ|31=241.43|32=614|37=102234|39=2|54=1|55=MSFT|150=2|10=133|
20230601-19:55:06.540072000 : 8=FIX.4.2|9=150|35=D|34=103|49=OPS_CANDIDATE_7_7595|52=20230601-19:55:06.539|56=DTL|60=20230601-19:55:06.539|11=1685649288699|21=1|38=587|40=2|44=135.92|54=2|55=AAPL|10=168|
20230601-19:55:06.582874000 : 8=FIX.4.2|9=154|35=8|34=236|49=DTL|52=20230601-19:55:06.493|56=OPS_CANDIDATE_7_7595|11=1685649288698|17=145016|30=NSDQ|31=152.31|32=172|37=102236|39=2|54=5|55=AAPL|150=2|10=112|
20230601-19:55:06.679789000 : 8=FIX.4.2|9=146|35=F|34=104|49=OPS_CANDIDATE_7_7595|52=20230601-19:55:06.679|56=DTL|60=20230601-19:55:06.679|11=1685649306679|38=511|41=1685649288665|54=1|55=BAC|10=040|
20230601-19:55:06.691450000 : 8=FIX.4.2|9=141|35=8|34=237|49=DTL|52=20230601-19:55:06.580|56=OPS_CANDIDATE_7_7595|11=1685649288699|37=102237|38=587|39=0|40=2|44=135.92|54=2|55=AAPL|150=0|10=167|
20230601-19:55:06.756722000 : 8=FIX.4.2|9=135|35=9|34=238|49=DTL|52=20230601-19:55:06.720|56=OPS_CANDIDATE_7_7595|11=1685649306679|37=NONE|39=8|41=1685649288665|58=Unknown order id|10=043|
20230601-19:55:06.762392000 : 8=FIX.4.2|9=150|35=D|34=105|49=OPS_CANDIDATE_7_7595|52=20230601-19:55:06.762|56=DTL|60=20230601-19:55:06.762|11=1685649288700|21=1|38=993|40=2|44=121.18|54=1|55=AAPL|10=142|
20230601-19:55:06.828279000 : 8=FIX.4.2|9=141|35=8|34=239|49=DTL|52=20230601-19:55:06.803|56=OPS_CANDIDATE_7_7595|11=1685649288700|37=102238|38=993|39=0|40=2|44=121.18|54=1|55=AAPL|150=0|10=144|
20230601-19:55:06.879007000 : 8=FIX.4.2|9=147|35=F|34=106|49=OPS_CANDIDATE_7_7595|52=20230601-19:55:06.878|56=DTL|60=20230601-19:55:06.878|11=1685649306878|38=501|41=1685649288664|54=1|55=AAPL|10=132|
20230601-19:55:06.940568000 : 8=FIX.4.2|9=139|35=D|34=107|49=OPS_CANDIDATE_7_7595|52=20230601-19:55:06.940|56=DTL|60=20230601-19:55:06.940|11=1685649288702|21=1|38=201|40=1|54=2|55=BAC|10=090|
20230601-19:55:06.945629000 : 8=FIX.4.2|9=135|35=9|34=240|49=DTL|52=20230601-19:55:06.919|56=OPS_CANDIDATE_7_7595|11=1685649306878|37=NONE|39=8|41=1685649288664|58=Unknown order id|10=046|
20230601-19:55:07.010649000 : 8=FIX.4.2|9=135|35=8|34=241|49=DTL|52=20230601-19:55:06.984|56=OPS_CANDIDATE_7_7595|11=1685649288702|37=102239|38=201|39=0|40=1|44=0|54=2|55=BAC|150=0|10=052|
20230601-19:55:07.051159000 : 8=FIX.4.2|9=146|35=F|34=108|49=OPS_CANDIDATE_7_7595|52=20230601-19:55:07.051|56=DTL|60=20230601-19:55:07.050|11=1685649307050|38=349|41=1685649288627|54=5|55=BAC|10=008|
20230601-19:55:07.116992000 : 8=FIX.4.2|9=135|35=9|34=242|49=DTL|52=20230601-19:55:07.091|56=OPS_CANDIDATE_7_7595|11=1685649307050|37=NONE|39=8|41=1685649288627|58=Unknown order id|10=022|
20230601-19:55:07.187734000 : 8=FIX.4.2|9=139|35=D|34=109|49=OPS_CANDIDATE_7_7595|52=20230601-19:55:07.187|56=DTL|60=20230601-19:55:07.187|11=1685649288703|21=1|38=32|40=1|54=5|55=MSFT|10=174|
20230601-19:55:07.253844000 : 8=FIX.4.2|9=135|35=8|34=243|49=DTL|52=20230601-19:55:07.228|56=OPS_CANDIDATE_7_7595|11=1685649288703|37=102240|38=32|39=0|40=1|44=0|54=5|55=MSFT|150=0|10=112|
20230601-19:55:07.315388000 : 8=FIX.4.2|9=150|35=D|34=110|49=OPS_CANDIDATE_7_7595|52=20230601-19:55:07.315|56=DTL|60=20230601-19:55:07.315|11=1685649288704|21=1|38=399|40=2|44=156.58|54=1|55=AAPL|10=144|
20230601-19:55:07.379020000 : 8=FIX.4.2|9=147|35=F|34=111|49=OPS_CANDIDATE_7_7595|52=20230601-19:55:07.378|56=DTL|60=20230601-19:55:07.378|11=1685649307378|38=522|41=1685649288649|54=2|55=AAPL|10=123|
20230601-19:55:07.381340000 : 8=FIX.4.2|9=141|35=8|34=244|49=DTL|52=20230601-19:55:07.356|56=OPS_CANDIDATE_7_7595|11=1685649288704|37=102241|38=399|39=0|40=2|44=156.58|54=1|55=AAPL|150=0|10=154|
20230601-19:55:07.447165000 : 8=FIX.4.2|9=135|35=9|34=245|49=DTL|52=20230601-19:55:07.421|56=OPS_CANDIDATE_7_7595|11=1685649307378|37=NONE|39=8|41=1685649288649|58=Unknown order id|10=039|
20230601-19:55:07.622642000 : 8=FIX.4.2|9=151|35=8|34=246|49=DTL|52=20230601-19:55:07.597|56=OPS_CANDIDATE_7_7595|11=1685649288681|17=145017|30=NSDQ|31=32.37|32=57|37=102220|39=1|54=5|55=BAC|150=1|10=177|
20230601-19:55:07.623917000 : 8=FIX.4.2|9=151|35=8|34=247|49=DTL|52=20230601-19:55:07.597|56=OPS_CANDIDATE_7_7595|11=1685649288684|17=145018|30=NSDQ|31=30.77|32=35|37=102223|39=1|54=5|55=BAC|150=1|10=183|
20230601-19:55:07.624149000 : 8=FIX.4.2|9=152|35=8|34=248|49=DTL|52=20230601-19:55:07.597|56=OPS_CANDIDATE_7_7595|11=1685649288687|17=145019|30=NSDQ|31=150.31|32=8|37=102225|39=1|54=5|55=AAPL|150=1|10=016|
20230601-19:55:07.624207000 : 8=FIX.4.2|9=153|35=8|34=249|49=DTL|52=20230601-19:55:07.597|56=OPS_CANDIDATE_7_7595|11=1685649288688|17=145020|30=NSDQ|31=151.72|32=84|37=102226|39=1|54=5|55=AAPL|150=1|10=070|
20230601-19:55:07.624260000 : 8=FIX.4.2|9=154|35=8|34=250|49=DTL|52=20230601-19:55:07.597|56=OPS_CANDIDATE_7_7595|11=1685649288690|17=145021|30=NSDQ|31=237.12|32=100|37=102228|39=1|54=5|55=MSFT|150=1|10=123|
20230601-19:55:07.624311000 : 8=FIX.4.2|9=151|35=8|34=251|49=DTL|52=20230601-19:55:07.597|56=OPS_CANDIDATE_7_7595|11=1685649288691|17=145022|30=NSDQ|31=31.55|32=18|37=102229|39=2|54=2|55=BAC|150=2|10=174|
20230601-19:55:07.624362000 : 8=FIX.4.2|9=154|35=8|34=252|49=DTL|52=20230601-19:55:07.597|56=OPS_CANDIDATE_7_7595|11=1685649288694|17=145023|30=NSDQ|31=151.19|32=132|37=102232|39=2|54=2|55=AAPL|150=2|10=104|
20230601-19:55:07.624413000 : 8=FIX.4.2|9=154|35=8|34=253|49=DTL|52=20230601-19:55:07.598|56=OPS_CANDIDATE_7_7595|11=1685649288699|17=145024|30=NSDQ|31=152.26|32=333|37=102237|39=1|54=2|55=AAPL|150=1|10=117|
20230601-19:55:07.624463000 : 8=FIX.4.2|9=154|35=8|34=254|49=DTL|52=20230601-19:55:07.598|56=OPS_CANDIDATE_7_7595|11=1685649288700|17=145025|30=NSDQ|31=151.05|32=477|37=102238|39=1|54=1|55=AAPL|150=1|10=107|
20230601-19:55:07.628840000 : 8=FIX.4.2|9=146|35=F|34=112|49=OPS_CANDIDATE_7_7595|52=20230601-19:55:07.628|56=DTL|60=20230601-19:55:07.628|11=1685649307628|38=165|41=1685649288636|54=1|55=BAC|10=027|
20230601-19:55:07.683493000 : 8=FIX.4.2|9=150|35=D|34=113|49=OPS_CANDIDATE_7_7595|52=20230601-19:55:07.683|56=DTL|60=20230601-19:55:07.683|11=1685649288705|21=1|38=366|40=2|44=135.02|54=5|55=AAPL|10=148|
20230601-19:55:07.688144000 : 8=FIX.4.2|9=152|35=8|34=255|49=DTL|52=20230601-19:55:07.598|56=OPS_CANDIDATE_7_7595|11=1685649288702|17=145026|30=NSDQ|31=33.67|32=172|37=102239|39=1|54=2|55=BAC|150=1|10=230|
20230601-19:55:07.688365000 : 8=FIX.4.2|9=153|35=8|34=256|49=DTL|52=20230601-19:55:07.598|56=OPS_CANDIDATE_7_7595|11=1685649288703|17=145027|30=NSDQ|31=240.48|32=25|37=102240|39=1|54=5|55=MSFT|150=1|10=085|
20230601-19:55:07.688426000 : 8=FIX.4.2|9=154|35=8|34=257|49=DTL|52=20230601-19:55:07.598|56=OPS_CANDIDATE_7_7595|11=1685649288704|17=145028|30=NSDQ|31=151.93|32=399|37=102241|39=2|54=1|55=AAPL|150=2|10=123|
20230601-19:55:07.792176000 : 8=FIX.4.2|9=150|35=D|34=114|49=OPS_CANDIDATE_7_7595|52=20230601-19:55:07.792|56=DTL|60=20230601-19:55:07.791|11=1685649288706|21=1|38=998|40=2|44=240.09|54=1|55=MSFT|10=190|
20230601-19:55:07.794883000 : 8=FIX.4.2|9=135|35=9|34=258|49=DTL|52=20230601-19:55:07.669|56=OPS_CANDIDATE_7_7595|11=1685649307628|37=NONE|39=8|41=1685649288636|58=Unknown order id|10=051|
20230601-19:55:07.860149000 : 8=FIX.4.2|9=141|35=8|34=259|49=DTL|52=20230601-19:55:07.776|56=OPS_CANDIDATE_7_7595|11=1685649288705|37=102242|38=366|39=0|40=2|44=135.02|54=5|55=AAPL|150=0|10=152|
20230601-19:55:07.943291000 : 8=FIX.4.2|9=146|35=F|34=115|49=OPS_CANDIDATE_7_7595|52=20230601-19:55:07.943|56=DTL|60=20230601-19:55:07.943|11=1685649307943|38=886|41=1685649288625|54=5|55=BAC|10=042|
20230601-19:55:07.967209000 : 8=FIX.4.2|9=141|35=8|34=260|49=DTL|52=20230601-19:55:07.841|56=OPS_CANDIDATE_7_7595|11=1685649288706|37=102243|38=998|39=0|40=2|44=240.09|54=1|55=MSFT|150=0|10=178|
20230601-19:55:08.032437000 : 8=FIX.4.2|9=135|35=9|34=261|49=DTL|52=20230601-19:55:07.984|56=OPS_CANDIDATE_7_7595|11=1685649307943|37=NONE|39=8|41=1685649288625|58=Unknown order id|10=043|
20230601-19:55:08.051993000 : 8=FIX.4.2|9=150|35=D|34=116|49=OPS_CANDIDATE_7_7595|52=20230601-19:55:08.051|56=DTL|60=20230601-19:55:08.051|11=1685649288707|21=1|38=755|40=2|44=330.89|54=5|55=MSFT|10=175|
20230601-19:55:08.118270000 : 8=FIX.4.2|9=141|35=8|34=262|49=DTL|52=20230601-19:55:08.092|56=OPS_CANDIDATE_7_7595|11=1685649288707|37=102244|38=755|39=0|40=2|44=330.89|54=5|55=MSFT|150=0|10=184|
20230601-19:55:08.316868000 : 8=FIX.4.2|9=146|35=F|34=117|49=OPS_CANDIDATE_7_7595|52=20230601-19:55:08.316|56=DTL|60=20230601-19:55:08.316|11=1685649308316|38=23|41=1685649288663|54=5|55=AAPL|10=054|
20230601-19:55:08.344490000 : 8=FIX.4.2|9=150|35=D|34=118|49=OPS_CANDIDATE_7_7595|52=20230601-19:55:08.344|56=DTL|60=20230601-19:55:08.344|11=1685649288708|21=1|38=399|40=2|44=162.93|54=2|55=AAPL|10=159|
20230601-19:55:08.384414000 : 8=FIX.4.2|9=135|35=9|34=263|49=DTL|52=20230601-19:55:08.358|56=OPS_CANDIDATE_7_7595|11=1685649308316|37=NONE|39=8|41=1685649288663|58=Unknown order id|10=038|
20230601-19:55:08.449347000 : 8=FIX.4.2|9=141|35=8|34=264|49=DTL|52=20230601-19:55:08.424|56=OPS_CANDIDATE_7_7595|11=1685649288708|37=102245|38=399|39=0|40=2|44=162.93|54=2|55=AAPL|150=0|10=158|
20230601-19:55:08.591298000 : 8=FIX.4.2|9=140|35=D|34=119|49=OPS_CANDIDATE_7_7595|52=20230601-19:55:08.591|56=DTL|60=20230601-19:55:08.591|11=1685649288709|21=1|38=558|40=1|54=5|55=AAPL|10=206|
20230601-19:55:08.659922000 : 8=FIX.4.2|9=147|35=F|34=120|49=OPS_CANDIDATE_7_7595|52=20230601-19:55:08.659|56=DTL|60=20230601-19:55:08.659|11=1685649308659|38=139|41=1685649288687|54=5|55=AAPL|10=141|
20230601-19:55:08.725758000 : 8=FIX.4.2|9=149|35=8|34=265|49=DTL|52=20230601-19:55:08.700|56=OPS_CANDIDATE_7_7595|11=1685649288681|17=145029|30=NSDQ|31=32.9|32=2|37=102220|39=1|54=5|55=BAC|150=1|10=068|
20230601-19:55:08.726780000 : 8=FIX.4.2|9=150|35=8|34=266|49=DTL|52=20230601-19:55:08.700|56=OPS_CANDIDATE_7_7595|11=1685649288684|17=145030|30=NSDQ|31=33.82|32=9|37=102223|39=2|54=5|55=BAC|150=2|10=118|
20230601-19:55:08.726919000 : 8=FIX.4.2|9=153|35=8|34=267|49=DTL|52=20230601-19:55:08.700|56=OPS_CANDIDATE_7_7595|11=1685649288687|17=145031|30=NSDQ|31=150.33|32=32|37=102225|39=2|54=5|55=AAPL|150=2|10=048|
20230601-19:55:08.726977000 : 8=FIX.4.2|9=152|35=8|34=268|49=DTL|52=20230601-19:55:08.701|56=OPS_CANDIDATE_7_7595|11=1685649288688|17=145032|30=NSDQ|31=152.3|32=16|37=102226|39=1|54=5|55=AAPL|150=1|10=003|
20230601-19:55:08.727034000 : 8=FIX.4.2|9=151|35=8|34=269|49=DTL|52=20230601-19:55:08.701|56=OPS_CANDIDATE_7_7595|11=1685649288690|17=145033|30=NSDQ|31=239.5|32=3|37=102228|39=1|54=5|55=MSFT|150=1|10=239|
20230601-19:55:08.727095000 : 8=FIX.4.2|9=153|35=8|34=270|49=DTL|52=20230601-19:55:08.701|56=OPS_CANDIDATE_7_7595|11=1685649288699|17=145034|30=NSDQ|31=150.11|32=19|37=102237|39=1|54=2|55=AAPL|150=1|10=048|
20230601-19:55:08.727155000 : 8=FIX.4.2|9=154|35=8|34=271|49=DTL|52=20230601-19:55:08.701|56=OPS_CANDIDATE_7_7595|11=1685649288700|17=145035|30=NSDQ|31=151.16|32=188|37=102238|39=1|54=1|55=AAPL|150=1|10=095|
20230601-19:55:08.727219000 : 8=FIX.4.2|9=150|35=8|34=272|49=DTL|52=20230601-19:55:08.701|56=OPS_CANDIDATE_7_7595|11=1685649288702|17=145036|30=NSDQ|31=31.5|32=29|37=102239|39=2|54=2|55=BAC|150=2|10=112|
20230601-19:55:08.727281000 : 8=FIX.4.2|9=152|35=8|34=273|49=DTL|52=20230601-19:55:08.701|56=OPS_CANDIDATE_7_7595|11=1685649288703|17=145037|30=NSDQ|31=238.17|32=3|37=102240|39=1|54=5|55=MSFT|150=1|10=022|
20230601-19:55:08.758520000 : 8=FIX.4.2|9=139|35=D|34=121|49=OPS_CANDIDATE_7_7595|52=20230601-19:55:08.758|56=DTL|60=20230601-19:55:08.758|11=1685649288710|21=1|38=834|40=1|54=2|55=BAC|10=115|
20230601-19:55:08.791014000 : 8=FIX.4.2|9=154|35=8|34=274|49=DTL|52=20230601-19:55:08.701|56=OPS_CANDIDATE_7_7595|11=1685649288705|17=145038|30=NSDQ|31=152.73|32=366|37=102242|39=2|54=5|55=AAPL|150=2|10=109|
20230601-19:55:08.791232000 : 8=FIX.4.2|9=151|35=8|34=275|49=DTL|52=20230601-19:55:08.701|56=OPS_CANDIDATE_7_7595|11=1685649288706|17=145039|30=NSDQ|31=238|32=822|37=102243|39=1|54=1|55=MSFT|150=1|10=238|
20230601-19:55:08.791296000 : 8=FIX.4.2|9=153|35=8|34=276|49=DTL|52=20230601-19:55:08.702|56=OPS_CANDIDATE_7_7595|11=1685649288707|17=145040|30=NSDQ|31=242.8|32=417|37=102244|39=1|54=5|55=MSFT|150=1|10=081|
20230601-19:55:08.791354000 : 8=FIX.4.2|9=154|35=8|34=277|49=DTL|52=20230601-19:55:08.702|56=OPS_CANDIDATE_7_7595|11=1685649288708|17=145041|30=NSDQ|31=151.82|32=399|37=102245|39=2|54=2|55=AAPL|150=2|10=115|
20230601-19:55:08.791410000 : 8=FIX.4.2|9=136|35=8|34=278|49=DTL|52=20230601-19:55:08.702|56=OPS_CANDIDATE_7_7595|11=1685649288709|37=102246|38=558|39=0|40=1|44=0|54=5|55=AAPL|150=0|10=164|
20230601-19:55:08.791470000 : 8=FIX.4.2|9=135|35=9|34=279|49=DTL|52=20230601-19:55:08.739|56=OPS_CANDIDATE_7_7595|11=1685649308659|37=NONE|39=8|41=1685649288687|58=Unknown order id|10=064|
20230601-19:55:08.899206000 : 8=FIX.4.2|9=135|35=8|34=280|49=DTL|52=20230601-19:55:08.805|56=OPS_CANDIDATE_7_7595|11=1685649288710|37=102247|38=834|39=0|40=1|44=0|54=2|55=BAC|150=0|10=059|
20230601-19:55:08.927186000 : 8=FIX.4.2|9=147|35=F|34=122|49=OPS_CANDIDATE_7_7595|52=20230601-19:55:08.927|56=DTL|60=20230601-19:55:08.926|11=1685649308926|38=647|41=1685649288647|54=1|55=MSFT|10=159|
20230601-19:55:08.992801000 : 8=FIX.4.2|9=135|35=9|34=281|49=DTL|52=20230601-19:55:08.968|56=OPS_CANDIDATE_7_7595|11=1685649308926|37=NONE|39=8|41=1685649288647|58=Unknown order id|10=054|
20230601-19:55:09.028848000 : 8=FIX.4.2|9=147|35=F|34=123|49=OPS_CANDIDATE_7_7595|52=20230601-19:55:09.028|56=DTL|60=20230601-19:55:09.028|11=1685649309028|38=382|41=1685649288656|54=1|55=MSFT|10=137|
20230601-19:55:09.094273000 : 8=FIX.4.2|9=135|35=9|34=282|49=DTL|52=20230601-19:55:09.069|56=OPS_CANDIDATE_7_7595|11=1685649309028|37=NONE|39=8|41=1685649288656|58=Unknown order id|10=042|
20230601-19:55:09.115429000 : 8=FIX.4.2|9=148|35=D|34=124|49=OPS_CANDIDATE_7_7595|52=20230601-19:55:09.115|56=DTL|60=20230601-19:55:09.115|11=1685649288711|21=1|38=443|40=2|44=27.32|54=2|55=BAC|10=254|
20230601-19:55:09.181196000 : 8=FIX.4.2|9=139|35=8|34=283|49=DTL|52=20230601-19:55:09.156|56=OPS_CANDIDATE_7_7595|11=1685649288711|37=102248|38=443|39=0|40=2|44=27.32|54=2|55=BAC|150=0|10=013|
20230601-19:55:09.359233000 : 8=FIX.4.2|9=146|35=F|34=125|49=OPS_CANDIDATE_7_7595|52=20230601-19:55:09.359|56=DTL|60=20230601-19:55:09.358|11=1685649309359|38=839|41=1685649288630|54=2|55=BAC|10=042|
20230601-19:55:09.425595000 : 8=FIX.4.2|9=135|35=9|34=284|49=DTL|52=20230601-19:55:09.400|56=OPS_CANDIDATE_7_7595|11=1685649309359|37=NONE|39=8|41=1685649288630|58=Unknown order id|10=032|
20230601-19:55:09.440911000 : 8=FIX.4.2|9=150|35=D|34=126|49=OPS_CANDIDATE_7_7595|52=20230601-19:55:09.440|56=DTL|60=20230601-19:55:09.440|11=1685649288712|21=1|38=653|40=2|44=169.89|54=1|55=AAPL|10=153|
20230601-19:55:09.506887000 : 8=FIX.4.2|9=141|35=8|34=285|49=DTL|52=20230601-19:55:09.481|56=OPS_CANDIDATE_7_7595|11=1685649288712|37=102249|38=653|39=0|40=2|44=169.89|54=1|55=AAPL|150=0|10=168|
20230601-19:55:09.614605000 : 8=FIX.4.2|9=139|35=D|34=127|49=OPS_CANDIDATE_7_7595|52=20230601-19:55:09.614|56=DTL|60=20230601-19:55:09.614|11=1685649288713|21=1|38=207|40=1|54=5|55=BAC|10=105|
20230601-19:55:09.680787000 : 8=FIX.4.2|9=135|35=8|34=286|49=DTL|52=20230601-19:55:09.655|56=OPS_CANDIDATE_7_7595|11=1685649288713|37=102250|38=207|39=0|40=1|44=0|54=5|55=BAC|150=0|10=063|
20230601-19:55:09.717239000 : 8=FIX.4.2|9=145|35=F|34=128|49=OPS_CANDIDATE_7_7595|52=20230601-19:55:09.717|56=DTL|60=20230601-19:55:09.716|11=1685649309717|38=92|41=1685649288644|54=5|55=BAC|10=245|
20230601-19:55:09.805911000 : 8=FIX.4.2|9=149|35=D|34=129|49=OPS_CANDIDATE_7_7595|52=20230601-19:55:09.805|56=DTL|60=20230601-19:55:09.805|11=1685649288714|21=1|38=51|40=2|44=308.81|54=1|55=MSFT|10=135|
20230601-19:55:09.825009000 : 8=FIX.4.2|9=150|35=8|34=287|49=DTL|52=20230601-19:55:09.799|56=OPS_CANDIDATE_7_7595|11=1685649288681|17=145042|30=NSDQ|31=34.91|32=1|37=102220|39=1|54=5|55=BAC|150=1|10=128|
20230601-19:55:09.826224000 : 8=FIX.4.2|9=152|35=8|34=288|49=DTL|52=20230601-19:55:09.799|56=OPS_CANDIDATE_7_7595|11=1685649288688|17=145043|30=NSDQ|31=151.69|32=2|37=102226|39=1|54=5|55=AAPL|150=1|10=031|
20230601-19:55:09.826370000 : 8=FIX.4.2|9=153|35=8|34=289|49=DTL|52=20230601-19:55:09.799|56=OPS_CANDIDATE_7_7595|11=1685649288690|17=145044|30=NSDQ|31=237.17|32=12|37=102228|39=1|54=5|55=MSFT|150=1|10=104|
20230601-19:55:09.826422000 : 8=FIX.4.2|9=154|35=8|34=290|49=DTL|52=20230601-19:55:09.800|56=OPS_CANDIDATE_7_7595|11=1685649288699|17=145045|30=NSDQ|31=150.21|32=235|37=102237|39=2|54=2|55=AAPL|150=2|10=105|
20230601-19:55:09.826470000 : 8=FIX.4.2|9=154|35=8|34=291|49=DTL|52=20230601-19:55:09.800|56=OPS_CANDIDATE_7_7595|11=1685649288700|17=145046|30=NSDQ|31=150.61|32=328|37=102238|39=2|54=1|55=AAPL|150=2|10=097|
20230601-19:55:09.826516000 : 8=FIX.4.2|9=152|35=8|34=292|49=DTL|52=20230601-19:55:09.800|56=OPS_CANDIDATE_7_7595|11=1685649288703|17=145047|30=NSDQ|31=242.18|32=2|37=102240|39=1|54=5|55=MSFT|150=1|10=020|
20230601-19:55:09.826562000 : 8=FIX.4.2|9=154|35=8|34=293|49=DTL|52=20230601-19:55:09.800|56=OPS_CANDIDATE_7_7595|11=1685649288706|17=145048|30=NSDQ|31=239.12|32=136|37=102243|39=1|54=1|55=MSFT|150=1|10=130|
20230601-19:55:09.826608000 : 8=FIX.4.2|9=154|35=8|34=294|49=DTL|52=20230601-19:55:09.800|56=OPS_CANDIDATE_7_7595|11=1685649288707|17=145049|30=NSDQ|31=240.01|32=338|37=102244|39=2|54=5|55=MSFT|150=2|10=134|
20230601-19:55:09.826653000 : 8=FIX.4.2|9=153|35=8|34=295|49=DTL|52=20230601-19:55:09.800|56=OPS_CANDIDATE_7_7595|11=1685649288709|17=145050|30=NSDQ|31=152.2|32=279|37=102246|39=1|54=5|55=AAPL|150=1|10=059|
20230601-19:55:09.891317000 : 8=FIX.4.2|9=152|35=8|34=296|49=DTL|52=20230601-19:55:09.800|56=OPS_CANDIDATE_7_7595|11=1685649288710|17=145051|30=NSDQ|31=32.75|32=259|37=102247|39=1|54=2|55=BAC|150=1|10=223|
20230601-19:55:09.891537000 : 8=FIX.4.2|9=152|35=8|34=297|49=DTL|52=20230601-19:55:09.800|56=OPS_CANDIDATE_7_7595|11=1685649288711|17=145052|30=NSDQ|31=34.33|32=443|37=102248|39=2|54=2|55=BAC|150=2|10=220|
20230601-19:55:09.891603000 : 8=FIX.4.2|9=154|35=8|34=298|49=DTL|52=20230601-19:55:09.800|56=OPS_CANDIDATE_7_7595|11=1685649288712|17=145053|30=NSDQ|31=150.63|32=394|37=102249|39=1|54=1|55=AAPL|150=1|10=110|
20230601-19:55:09.891663000 : 8=FIX.4.2|9=151|35=8|34=299|49=DTL|52=20230601-19:55:09.800|56=OPS_CANDIDATE_7_7595|11=1685649288713|17=145054|30=NSDQ|31=31.2|32=207|37=102250|39=2|54=5|55=BAC|150=2|10=164|
20230601-19:55:09.891723000 : 8=FIX.4.2|9=135|35=9|34=300|49=DTL|52=20230601-19:55:09.801|56=OPS_CANDIDATE_7_7595|11=1685649309717|37=NONE|39=8|41=1685649288644|58=Unknown order id|10=029|
20230601-19:55:09.891780000 : 8=FIX.4.2|9=107|35=8|34=301|49=DTL|52=20230601-19:55:09.864|56=OPS_CANDIDATE_7_7595|11=1685649288714|39=8|58=Unlucky|150=8|10=212|
20230601-19:55:10.083744000 : 8=FIX.4.2|9=147|35=F|34=130|49=OPS_CANDIDATE_7_7595|52=20230601-19:55:10.083|56=DTL|60=20230601-19:55:10.083|11=1685649310083|38=395|41=1685649288640|54=5|55=AAPL|10=087|
20230601-19:55:10.150118000 : 8=FIX.4.2|9=135|35=9|34=302|49=DTL|52=20230601-19:55:10.124|56=OPS_CANDIDATE_7_7595|11=1685649310083|37=NONE|39=8|41=1685649288640|58=Unknown order id|10=005|
20230601-19:55:10.163360000 : 8=FIX.4.2|9=148|35=D|34=131|49=OPS_CANDIDATE_7_7595|52=20230601-19:55:10.163|56=DTL|60=20230601-19:55:10.163|11=1685649288715|21=1|38=461|40=2|44=30.69|54=2|55=BAC|10=250|
20230601-19:55:10.229150000 : 8=FIX.4.2|9=139|35=8|34=303|49=DTL|52=20230601-19:55:10.204|56=OPS_CANDIDATE_7_7595|11=1685649288715|37=102252|38=461|39=0|40=2|44=30.69|54=2|55=BAC|150=0|10=251|
20230601-19:55:10.337115000 : 8=FIX.4.2|9=148|35=D|34=132|49=OPS_CANDIDATE_7_7595|52=20230601-19:55:10.337|56=DTL|60=20230601-19:55:10.336|11=1685649288717|21=1|38=857|40=2|44=25.32|54=1|55=BAC|10=004|
20230601-19:55:10.402748000 : 8=FIX.4.2|9=139|35=8|34=304|49=DTL|52=20230601-19:55:10.377|56=OPS_CANDIDATE_7_7595|11=1685649288717|37=102253|38=857|39=0|40=2|44=25.32|54=1|55=BAC|150=0|10=012|
20230601-19:55:10.420766000 : 8=FIX.4.2|9=146|35=F|34=133|49=OPS_CANDIDATE_7_7595|52=20230601-19:55:10.420|56=DTL|60=20230601-19:55:10.420|11=1685649310420|38=51|41=1685649288714|54=1|55=MSFT|10=041|
20230601-19:55:10.487197000 : 8=FIX.4.2|9=135|35=9|34=305|49=DTL|52=20230601-19:55:10.461|56=OPS_CANDIDATE_7_7595|11=1685649310420|37=NONE|39=8|41=1685649288714|58=Unknown order id|10=009|
20230601-19:55:10.489463000 : 8=FIX.4.2|9=147|35=D|34=134|49=OPS_CANDIDATE_7_7595|52=20230601-19:55:10.489|56=DTL|60=20230601-19:55:10.489|11=1685649288718|21=1|38=38|40=2|44=35.65|54=5|55=BAC|10=233|
20230601-19:55:10.555896000 : 8=FIX.4.2|9=138|35=8|34=306|49=DTL|52=20230601-19:55:10.530|56=OPS_CANDIDATE_7_7595|11=1685649288718|37=102254|38=38|39=0|40=2|44=35.65|54=5|55=BAC|150=0|10=216|
20230601-19:55:10.799337000 : 8=FIX.4.2|9=146|35=F|34=135|49=OPS_CANDIDATE_7_7595|52=20230601-19:55:10.799|56=DTL|60=20230601-19:55:10.799|11=1685649310799|38=638|41=1685649288692|54=5|55=BAC|10=052|
20230601-19:55:10.873985000 : 8=FIX.4.2|9=139|35=D|34=136|49=OPS_CANDIDATE_7_7595|52=20230601-19:55:10.873|56=DTL|60=20230601-19:55:10.873|11=1685649288719|21=1|38=935|40=1|54=1|55=BAC|10=113|
20230601-19:55:10.930693000 : 8=FIX.4.2|9=150|35=8|34=307|49=DTL|52=20230601-19:55:10.905|56=OPS_CANDIDATE_7_7595|11=1685649288681|17=145055|30=NSDQ|31=30.18|32=8|37=102220|39=2|54=5|55=BAC|150=2|10=110|
20230601-19:55:10.932381000 : 8=FIX.4.2|9=152|35=8|34=308|49=DTL|52=20230601-19:55:10.905|56=OPS_CANDIDATE_7_7595|11=1685649288688|17=145056|30=NSDQ|31=151.87|32=1|37=102226|39=1|54=5|55=AAPL|150=1|10=008|
20230601-19:55:10.932477000 : 8=FIX.4.2|9=152|35=8|34=309|49=DTL|52=20230601-19:55:10.905|56=OPS_CANDIDATE_7_7595|11=1685649288690|17=145057|30=NSDQ|31=240.17|32=1|37=102228|39=2|54=5|55=MSFT|150=2|10=027|
20230601-19:55:10.932540000 : 8=FIX.4.2|9=152|35=8|34=310|49=DTL|52=20230601-19:55:10.905|56=OPS_CANDIDATE_7_7595|11=1685649288703|17=145058|30=NSDQ|31=238.18|32=2|37=102240|39=2|54=5|55=MSFT|150=2|10=018|
20230601-19:55:10.932598000 : 8=FIX.4.2|9=153|35=8|34=311|49=DTL|52=20230601-19:55:10.905|56=OPS_CANDIDATE_7_7595|11=1685649288706|17=145059|30=NSDQ|31=240.86|32=40|37=102243|39=2|54=1|55=MSFT|150=2|10=071|
20230601-19:55:10.932656000 : 8=FIX.4.2|9=154|35=8|34=312|49=DTL|52=20230601-19:55:10.906|56=OPS_CANDIDATE_7_7595|11=1685649288709|17=145060|30=NSDQ|31=151.94|32=279|37=102246|39=2|54=5|55=AAPL|150=2|10=110|
20230601-19:55:10.932706000 : 8=FIX.4.2|9=152|35=8|34=313|49=DTL|52=20230601-19:55:10.906|56=OPS_CANDIDATE_7_7595|11=1685649288710|17=145061|30=NSDQ|31=34.62|32=575|37=102247|39=2|54=2|55=BAC|150=2|10=214|
20230601-19:55:10.932751000 : 8=FIX.4.2|9=154|35=8|34=314|49=DTL|52=20230601-19:55:10.906|56=OPS_CANDIDATE_7_7595|11=1685649288712|17=145062|30=NSDQ|31=152.44|32=259|37=102249|39=2|54=1|55=AAPL|150=2|10=101|
20230601-19:55:10.932802000 : 8=FIX.4.2|9=151|35=8|34=315|49=DTL|52=20230601-19:55:10.906|56=OPS_CANDIDATE_7_7595|11=1685649288715|17=145063|30=NSDQ|31=31.11|32=82|37=102252|39=1|54=2|55=BAC|150=1|10=152|
20230601-19:55:10.939592000 : 8=FIX.4.2|9=147|35=F|34=137|49=OPS_CANDIDATE_7_7595|52=20230601-19:55:10.939|56=DTL|60=20230601-19:55:10.939|11=1685649310939|38=578|41=1685649288639|54=2|55=AAPL|10=132|
20230601-19:55:10.996421000 : 8=FIX.4.2|9=152|35=8|34=316|49=DTL|52=20230601-19:55:10.906|56=OPS_CANDIDATE_7_7595|11=1685649288717|17=145064|30=NSDQ|31=31.05|32=857|37=102253|39=2|54=1|55=BAC|150=2|10=220|
20230601-19:55:10.996626000 : 8=FIX.4.2|9=151|35=8|34=317|49=DTL|52=20230601-19:55:10.906|56=OPS_CANDIDATE_7_7595|11=1685649288718|17=145065|30=NSDQ|31=31.81|32=36|37=102254|39=1|54=5|55=BAC|150=1|10=170|
20230601-19:55:10.996688000 : 8=FIX.4.2|9=135|35=9|34=318|49=DTL|52=20230601-19:55:10.906|56=OPS_CANDIDATE_7_7595|11=1685649310799|37=NONE|39=8|41=1685649288692|58=Unknown order id|10=041|
20230601-19:55:10.996761000 : 8=FIX.4.2|9=107|35=8|34=319|49=DTL|52=20230601-19:55:10.948|56=OPS_CANDIDATE_7_7595|11=1685649288719|39=8|58=Unlucky|150=8|10=221|
20230601-19:55:11.022222000 : 8=FIX.4.2|9=150|35=D|34=138|49=OPS_CANDIDATE_7_7595|52=20230601-19:55:11.022|56=DTL|60=20230601-19:55:11.021|11=1685649288720|21=1|38=212|40=2|44=161.02|54=2|55=AAPL|10=101|
20230601-19:55:11.062005000 : 8=FIX.4.2|9=135|35=9|34=320|49=DTL|52=20230601-19:55:11.013|56=OPS_CANDIDATE_7_7595|11=1685649310939|37=NONE|39=8|41=1685649288639|58=Unknown order id|10=021|
20230601-19:55:11.127445000 : 8=FIX.4.2|9=141|35=8|34=321|49=DTL|52=20230601-19:55:11.078|56=OPS_CANDIDATE_7_7595|11=1685649288720|37=102256|38=212|39=0|40=2|44=161.02|54=2|55=AAPL|150=0|10=120|
20230601-19:55:11.280002000 : 8=FIX.4.2|9=146|35=F|34=139|49=OPS_CANDIDATE_7_7595|52=20230601-19:55:11.279|56=DTL|60=20230601-19:55:11.279|11=1685649311279|38=256|41=1685649288683|54=2|55=BAC|10=031|
20230601-19:55:11.328630000 : 8=FIX.4.2|9=148|35=D|34=140|49=OPS_CANDIDATE_7_7595|52=20230601-19:55:11.328|56=DTL|60=20230601-19:55:11.328|11=1685649288721|21=1|38=490|40=2|44=25.67|54=5|55=BAC|10=006|
20230601-19:55:11.346908000 : 8=FIX.4.2|9=135|35=9|34=322|49=DTL|52=20230601-19:55:11.321|56=OPS_CANDIDATE_7_7595|11=1685649311279|37=NONE|39=8|41=1685649288683|58=Unknown order id|10=022|
20230601-19:55:11.412574000 : 8=FIX.4.2|9=139|35=8|34=323|49=DTL|52=20230601-19:55:11.387|56=OPS_CANDIDATE_7_7595|11=1685649288721|37=102257|38=490|39=0|40=2|44=25.67|54=5|55=BAC|150=0|10=019|
20230601-19:55:11.449289000 : 8=FIX.4.2|9=146|35=F|34=141|49=OPS_CANDIDATE_7_7595|52=20230601-19:55:11.449|56=DTL|60=20230601-19:55:11.449|11=1685649311449|38=950|41=1685649288623|54=2|55=BAC|10=016|
20230601-19:55:11.514993000 : 8=FIX.4.2|9=135|35=9|34=324|49=DTL|52=20230601-19:55:11.489|56=OPS_CANDIDATE_7_7595|11=1685649311449|37=NONE|39=8|41=1685649288623|58=Unknown order id|10=032|
20230601-19:55:11.558969000 : 8=FIX.4.2|9=148|35=D|34=142|49=OPS_CANDIDATE_7_7595|52=20230601-19:55:11.558|56=DTL|60=20230601-19:55:11.558|11=1685649288722|21=1|38=317|40=2|44=25.79|54=1|55=BAC|10=016|
20230601-19:55:11.625236000 : 8=FIX.4.2|9=139|35=8|34=325|49=DTL|52=20230601-19:55:11.600|56=OPS_CANDIDATE_7_7595|11=1685649288722|37=102258|38=317|39=0|40=2|44=25.79|54=1|55=BAC|150=0|10=008|
20230601-19:55:11.725699000 : 8=FIX.4.2|9=146|35=F|34=143|49=OPS_CANDIDATE_7_7595|52=20230601-19:55:11.725|56=DTL|60=20230601-19:55:11.725|11=1685649311725|38=720|41=1685649288684|54=5|55=BAC|10=014|
20230601-19:55:11.791487000 : 8=FIX.4.2|9=135|35=9|34=326|49=DTL|52=20230601-19:55:11.766|56=OPS_CANDIDATE_7_7595|11=1685649311725|37=NONE|39=8|41=1685649288684|58=Unknown order id|10=036|
20230601-19:55:11.903443000 : 8=FIX.4.2|9=139|35=D|34=144|49=OPS_CANDIDATE_7_7595|52=20230601-19:55:11.903|56=DTL|60=20230601-19:55:11.903|11=1685649288723|21=1|38=87|40=1|54=2|55=AAPL|10=136|
20230601-19:55:11.994418000 : 8=FIX.4.2|9=146|35=F|34=145|49=OPS_CANDIDATE_7_7595|52=20230601-19:55:11.994|56=DTL|60=20230601-19:55:11.994|11=1685649311994|38=32|41=1685649288703|54=5|55=MSFT|10=096|
20230601-19:55:12.042727000 : 8=FIX.4.2|9=152|35=8|34=327|49=DTL|52=20230601-19:55:12.017|56=OPS_CANDIDATE_7_7595|11=1685649288688|17=145066|30=NSDQ|31=151.22|32=1|37=102226|39=1|54=5|55=AAPL|150=1|10=251|
20230601-19:55:12.108223000 : 8=FIX.4.2|9=152|35=8|34=328|49=DTL|52=20230601-19:55:12.018|56=OPS_CANDIDATE_7_7595|11=1685649288715|17=145067|30=NSDQ|31=33.64|32=304|37=102252|39=1|54=2|55=BAC|150=1|10=212|
20230601-19:55:12.108458000 : 8=FIX.4.2|9=147|35=8|34=329|49=DTL|52=20230601-19:55:12.018|56=OPS_CANDIDATE_7_7595|11=1685649288718|17=145068|30=NSDQ|31=30|32=2|37=102254|39=2|54=5|55=BAC|150=2|10=228|
20230601-19:55:12.108520000 : 8=FIX.4.2|9=154|35=8|34=330|49=DTL|52=20230601-19:55:12.018|56=OPS_CANDIDATE_7_7595|11=1685649288720|17=145069|30=NSDQ|31=152.06|32=156|37=102256|39=1|54=2|55=AAPL|150=1|10=092|
20230601-19:55:12.108578000 : 8=FIX.4.2|9=152|35=8|34=331|49=DTL|52=20230601-19:55:12.018|56=OPS_CANDIDATE_7_7595|11=1685649288721|17=145070|30=NSDQ|31=34.64|32=353|37=102257|39=1|54=5|55=BAC|150=1|10=210|
20230601-19:55:12.108651000 : 8=FIX.4.2|9=152|35=8|34=332|49=DTL|52=20230601-19:55:12.018|56=OPS_CANDIDATE_7_7595|11=1685649288722|17=145071|30=NSDQ|31=30.04|32=317|37=102258|39=2|54=1|55=BAC|150=2|10=202|
20230601-19:55:12.108707000 : 8=FIX.4.2|9=135|35=8|34=333|49=DTL|52=20230601-19:55:12.019|56=OPS_CANDIDATE_7_7595|11=1685649288723|37=102259|38=87|39=0|40=1|44=0|54=2|55=AAPL|150=0|10=097|
20230601-19:55:12.108762000 : 8=FIX.4.2|9=135|35=9|34=334|49=DTL|52=20230601-19:55:12.052|56=OPS_CANDIDATE_7_7595|11=1685649311994|37=NONE|39=8|41=1685649288703|58=Unknown order id|10=024|
20230601-19:55:12.116082000 : 8=FIX.4.2|9=140|35=D|34=146|49=OPS_CANDIDATE_7_7595|52=20230601-19:55:12.115|56=DTL|60=20230601-19:55:12.115|11=1685649288724|21=1|38=637|40=1|54=5|55=AAPL|10=175|
20230601-19:55:12.143674000 : 8=FIX.4.2|9=147|35=F|34=147|49=OPS_CANDIDATE_7_7595|52=20230601-19:55:12.143|56=DTL|60=20230601-19:55:12.143|11=1685649312143|38=399|41=1685649288708|54=2|55=AAPL|10=098|
20230601-19:55:12.182544000 : 8=FIX.4.2|9=136|35=8|34=335|49=DTL|52=20230601-19:55:12.157|56=OPS_CANDIDATE_7_7595|11=1685649288724|37=102260|38=637|39=0|40=1|44=0|54=5|55=AAPL|150=0|10=148|
20230601-19:55:12.291451000 : 8=FIX.4.2|9=135|35=9|34=336|49=DTL|52=20230601-19:55:12.222|56=OPS_CANDIDATE_7_7595|11=1685649312143|37=NONE|39=8|41=1685649288708|58=Unknown order id|10=017|
20230601-19:55:12.351385000 : 8=FIX.4.2|9=139|35=D|34=148|49=OPS_CANDIDATE_7_7595|52=20230601-19:55:12.351|56=DTL|60=20230601-19:55:12.351|11=1685649288725|21=1|38=149|40=1|54=2|55=BAC|10=097|
20230601-19:55:12.408907000 : 8=FIX.4.2|9=147|35=F|34=149|49=OPS_CANDIDATE_7_7595|52=20230601-19:55:12.408|56=DTL|60=20230601-19:55:12.408|11=1685649312408|38=873|41=1685649288673|54=2|55=MSFT|10=138|
20230601-19:55:12.416903000 : 8=FIX.4.2|9=135|35=8|34=337|49=DTL|52=20230601-19:55:12.391|56=OPS_CANDIDATE_7_7595|11=1685649288725|37=102261|38=149|39=0|40=1|44=0|54=2|55=BAC|150=0|10=058|
20230601-19:55:12.482370000 : 8=FIX.4.2|9=135|35=9|34=338|49=DTL|52=20230601-19:55:12.456|56=OPS_CANDIDATE_7_7595|11=1685649312408|37=NONE|39=8|41=1685649288673|58=Unknown order id|10=033|
20230601-19:55:12.554506000 : 8=FIX.4.2|9=147|35=F|34=150|49=OPS_CANDIDATE_7_7595|52=20230601-19:55:12.554|56=DTL|60=20230601-19:55:12.554|11=1685649312554|38=558|41=1685649288709|54=5|55=AAPL|10=111|
20230601-19:55:12.620923000 : 8=FIX.4.2|9=135|35=9|34=339|49=DTL|52=20230601-19:55:12.595|56=OPS_CANDIDATE_7_7595|11=1685649312554|37=NONE|39=8|41=1685649288709|58=Unknown order id|10=040|
20230601-19:55:12.752261000 : 8=FIX.4.2|9=150|35=D|34=151|49=OPS_CANDIDATE_7_7595|52=20230601-19:55:12.752|56=DTL|60=20230601-19:55:12.751|11=1685649288726|21=1|38=684|40=2|44=166.46|54=2|55=AAPL|10=150|
20230601-19:55:12.818331000 : 8=FIX.4.2|9=107|35=8|34=340|49=DTL|52=20230601-19:55:12.793|56=OPS_CANDIDATE_7_7595|11=1685649288726|39=8|58=Unlucky|150=8|10=213|
20230601-19:55:12.885914000 : 8=FIX.4.2|9=147|35=F|34=152|49=OPS_CANDIDATE_7_7595|52=20230601-19:55:12.885|56=DTL|60=20230601-19:55:12.885|11=1685649312885|38=755|41=1685649288697|54=1|55=MSFT|10=163|
20230601-19:55:12.909386000 : 8=FIX.4.2|9=140|35=D|34=153|49=OPS_CANDIDATE_7_7595|52=20230601-19:55:12.909|56=DTL|60=20230601-19:55:12.909|11=1685649288727|21=1|38=527|40=1|54=5|55=MSFT|10=224|
20230601-19:55:12.952503000 : 8=FIX.4.2|9=135|35=9|34=341|49=DTL|52=20230601-19:55:12.926|56=OPS_CANDIDATE_7_7595|11=1685649312885|37=NONE|39=8|41=1685649288697|58=Unknown order id|10=044|
20230601-19:55:13.019030000 : 8=FIX.4.2|9=136|35=8|34=342|49=DTL|52=20230601-19:55:12.993|56=OPS_CANDIDATE_7_7595|11=1685649288727|37=102263|38=527|39=0|40=1|44=0|54=5|55=MSFT|150=0|10=186|
20230601-19:55:13.047945000 : 8=FIX.4.2|9=146|35=F|34=154|49=OPS_CANDIDATE_7_7595|52=20230601-19:55:13.047|56=DTL|60=20230601-19:55:13.047|11=1685649313047|38=461|41=1685649288715|54=2|55=BAC|10=007|
20230601-19:55:13.138443000 : 8=FIX.4.2|9=152|35=8|34=343|49=DTL|52=20230601-19:55:13.113|56=OPS_CANDIDATE_7_7595|11=1685649288688|17=145072|30=NSDQ|31=151.02|32=2|37=102226|39=2|54=5|55=AAPL|150=2|10=245|
20230601-19:55:13.156572000 : 8=FIX.4.2|9=139|35=D|34=155|49=OPS_CANDIDATE_7_7595|52=20230601-19:55:13.156|56=DTL|60=20230601-19:55:13.156|11=1685649288728|21=1|38=433|40=1|54=2|55=BAC|10=102|
20230601-19:55:13.184104000 : 8=FIX.4.2|9=147|35=F|34=156|49=OPS_CANDIDATE_7_7595|52=20230601-19:55:13.184|56=DTL|60=20230601-19:55:13.183|11=1685649313183|38=733|41=1685649288670|54=2|55=AAPL|10=104|
20230601-19:55:13.222219000 : 8=FIX.4.2|9=151|35=8|34=344|49=DTL|52=20230601-19:55:13.113|56=OPS_CANDIDATE_7_7595|11=1685649288715|17=145073|30=NSDQ|31=31.77|32=23|37=102252|39=1|54=2|55=BAC|150=1|10=155|
20230601-19:55:13.222421000 : 8=FIX.4.2|9=153|35=8|34=345|49=DTL|52=20230601-19:55:13.113|56=OPS_CANDIDATE_7_7595|11=1685649288720|17=145074|30=NSDQ|31=152.83|32=11|37=102256|39=1|54=2|55=AAPL|150=1|10=037|
20230601-19:55:13.222471000 : 8=FIX.4.2|9=152|35=8|34=346|49=DTL|52=20230601-19:55:13.113|56=OPS_CANDIDATE_7_7595|11=1685649288721|17=145075|30=NSDQ|31=34.45|32=137|37=102257|39=2|54=5|55=BAC|150=2|10=219|
20230601-19:55:13.222521000 : 8=FIX.4.2|9=153|35=8|34=347|49=DTL|52=20230601-19:55:13.113|56=OPS_CANDIDATE_7_7595|11=1685649288723|17=145076|30=NSDQ|31=151.74|32=64|37=102259|39=1|54=2|55=AAPL|150=1|10=054|
20230601-19:55:13.222568000 : 8=FIX.4.2|9=154|35=8|34=348|49=DTL|52=20230601-19:55:13.113|56=OPS_CANDIDATE_7_7595|11=1685649288724|17=145077|30=NSDQ|31=152.28|32=555|37=102260|39=1|54=5|55=AAPL|150=1|10=106|
